{
  "_format": "hh-sol-artifact-1",
  "contractName": "LazyNFT",
  "sourceName": "src/backend/contracts/LazyNFT.sol",
  "abi": [
    {
      "inputs": [
        {
          "internalType": "address",
          "name": "usedToSign",
          "type": "address"
        }
      ],
      "stateMutability": "nonpayable",
      "type": "constructor"
    },
    {
      "anonymous": false,
      "inputs": [
        {
          "indexed": true,
          "internalType": "address",
          "name": "owner",
          "type": "address"
        },
        {
          "indexed": true,
          "internalType": "address",
          "name": "approved",
          "type": "address"
        },
        {
          "indexed": true,
          "internalType": "uint256",
          "name": "tokenId",
          "type": "uint256"
        }
      ],
      "name": "Approval",
      "type": "event"
    },
    {
      "anonymous": false,
      "inputs": [
        {
          "indexed": true,
          "internalType": "address",
          "name": "owner",
          "type": "address"
        },
        {
          "indexed": true,
          "internalType": "address",
          "name": "operator",
          "type": "address"
        },
        {
          "indexed": false,
          "internalType": "bool",
          "name": "approved",
          "type": "bool"
        }
      ],
      "name": "ApprovalForAll",
      "type": "event"
    },
    {
      "anonymous": false,
      "inputs": [
        {
          "indexed": true,
          "internalType": "address",
          "name": "previousOwner",
          "type": "address"
        },
        {
          "indexed": true,
          "internalType": "address",
          "name": "newOwner",
          "type": "address"
        }
      ],
      "name": "OwnershipTransferred",
      "type": "event"
    },
    {
      "anonymous": false,
      "inputs": [
        {
          "indexed": true,
          "internalType": "address",
          "name": "from",
          "type": "address"
        },
        {
          "indexed": true,
          "internalType": "address",
          "name": "to",
          "type": "address"
        },
        {
          "indexed": true,
          "internalType": "uint256",
          "name": "tokenId",
          "type": "uint256"
        }
      ],
      "name": "Transfer",
      "type": "event"
    },
    {
      "inputs": [],
      "name": "_signer",
      "outputs": [
        {
          "internalType": "address",
          "name": "",
          "type": "address"
        }
      ],
      "stateMutability": "view",
      "type": "function"
    },
    {
      "inputs": [
        {
          "internalType": "address",
          "name": "to",
          "type": "address"
        },
        {
          "internalType": "uint256",
          "name": "tokenId",
          "type": "uint256"
        }
      ],
      "name": "approve",
      "outputs": [],
      "stateMutability": "nonpayable",
      "type": "function"
    },
    {
      "inputs": [
        {
          "internalType": "address",
          "name": "owner",
          "type": "address"
        }
      ],
      "name": "balanceOf",
      "outputs": [
        {
          "internalType": "uint256",
          "name": "",
          "type": "uint256"
        }
      ],
      "stateMutability": "view",
      "type": "function"
    },
    {
      "inputs": [
        {
          "internalType": "uint256",
          "name": "tokenId",
          "type": "uint256"
        }
      ],
      "name": "getApproved",
      "outputs": [
        {
          "internalType": "address",
          "name": "",
          "type": "address"
        }
      ],
      "stateMutability": "view",
      "type": "function"
    },
    {
      "inputs": [
        {
          "internalType": "address",
          "name": "owner",
          "type": "address"
        },
        {
          "internalType": "address",
          "name": "operator",
          "type": "address"
        }
      ],
      "name": "isApprovedForAll",
      "outputs": [
        {
          "internalType": "bool",
          "name": "",
          "type": "bool"
        }
      ],
      "stateMutability": "view",
      "type": "function"
    },
    {
      "inputs": [
        {
          "components": [
            {
              "internalType": "uint256",
              "name": "tokenID",
              "type": "uint256"
            },
            {
              "internalType": "uint256",
              "name": "price",
              "type": "uint256"
            },
            {
              "internalType": "string",
              "name": "uri",
              "type": "string"
            }
          ],
          "internalType": "struct LazyNFT.SignedNFTData",
          "name": "nft",
          "type": "tuple"
        },
        {
          "internalType": "bytes",
          "name": "signature",
          "type": "bytes"
        }
      ],
      "name": "lazyMintNFT",
      "outputs": [
        {
          "internalType": "uint256",
          "name": "",
          "type": "uint256"
        }
      ],
      "stateMutability": "payable",
      "type": "function"
    },
    {
      "inputs": [],
      "name": "name",
      "outputs": [
        {
          "internalType": "string",
          "name": "",
          "type": "string"
        }
      ],
      "stateMutability": "view",
      "type": "function"
    },
    {
      "inputs": [],
      "name": "owner",
      "outputs": [
        {
          "internalType": "address",
          "name": "",
          "type": "address"
        }
      ],
      "stateMutability": "view",
      "type": "function"
    },
    {
      "inputs": [
        {
          "internalType": "uint256",
          "name": "tokenId",
          "type": "uint256"
        }
      ],
      "name": "ownerOf",
      "outputs": [
        {
          "internalType": "address",
          "name": "",
          "type": "address"
        }
      ],
      "stateMutability": "view",
      "type": "function"
    },
    {
      "inputs": [],
      "name": "renounceOwnership",
      "outputs": [],
      "stateMutability": "nonpayable",
      "type": "function"
    },
    {
      "inputs": [
        {
          "internalType": "address",
          "name": "from",
          "type": "address"
        },
        {
          "internalType": "address",
          "name": "to",
          "type": "address"
        },
        {
          "internalType": "uint256",
          "name": "tokenId",
          "type": "uint256"
        }
      ],
      "name": "safeTransferFrom",
      "outputs": [],
      "stateMutability": "nonpayable",
      "type": "function"
    },
    {
      "inputs": [
        {
          "internalType": "address",
          "name": "from",
          "type": "address"
        },
        {
          "internalType": "address",
          "name": "to",
          "type": "address"
        },
        {
          "internalType": "uint256",
          "name": "tokenId",
          "type": "uint256"
        },
        {
          "internalType": "bytes",
          "name": "_data",
          "type": "bytes"
        }
      ],
      "name": "safeTransferFrom",
      "outputs": [],
      "stateMutability": "nonpayable",
      "type": "function"
    },
    {
      "inputs": [
        {
          "internalType": "address",
          "name": "operator",
          "type": "address"
        },
        {
          "internalType": "bool",
          "name": "approved",
          "type": "bool"
        }
      ],
      "name": "setApprovalForAll",
      "outputs": [],
      "stateMutability": "nonpayable",
      "type": "function"
    },
    {
      "inputs": [
        {
          "internalType": "bytes4",
          "name": "interfaceId",
          "type": "bytes4"
        }
      ],
      "name": "supportsInterface",
      "outputs": [
        {
          "internalType": "bool",
          "name": "",
          "type": "bool"
        }
      ],
      "stateMutability": "view",
      "type": "function"
    },
    {
      "inputs": [],
      "name": "symbol",
      "outputs": [
        {
          "internalType": "string",
          "name": "",
          "type": "string"
        }
      ],
      "stateMutability": "view",
      "type": "function"
    },
    {
      "inputs": [
        {
          "internalType": "uint256",
          "name": "tokenId",
          "type": "uint256"
        }
      ],
      "name": "tokenURI",
      "outputs": [
        {
          "internalType": "string",
          "name": "",
          "type": "string"
        }
      ],
      "stateMutability": "view",
      "type": "function"
    },
    {
      "inputs": [
        {
          "internalType": "address",
          "name": "from",
          "type": "address"
        },
        {
          "internalType": "address",
          "name": "to",
          "type": "address"
        },
        {
          "internalType": "uint256",
          "name": "tokenId",
          "type": "uint256"
        }
      ],
      "name": "transferFrom",
      "outputs": [],
      "stateMutability": "nonpayable",
      "type": "function"
    },
    {
      "inputs": [
        {
          "internalType": "address",
          "name": "newOwner",
          "type": "address"
        }
      ],
      "name": "transferOwnership",
      "outputs": [],
      "stateMutability": "nonpayable",
      "type": "function"
    }
  ],
  "bytecode": "0x6101406040523480156200001257600080fd5b50604051620046a0380380620046a0833981810160405281019062000038919062000482565b6040518060400160405280600581526020017f4c415a59320000000000000000000000000000000000000000000000000000008152506040518060400160405280600381526020017f312e3000000000000000000000000000000000000000000000000000000000008152506040518060400160405280600781526020017f4c617a794e4654000000000000000000000000000000000000000000000000008152506040518060400160405280600581526020017f4c415a593200000000000000000000000000000000000000000000000000000081525081600090805190602001906200012892919062000368565b5080600190805190602001906200014192919062000368565b50505062000164620001586200025e60201b60201c565b6200026660201b60201c565b60008280519060200120905060008280519060200120905060007f8b73c3c69bb8fe3d512ecc4cf759cc79239f7b179b0ffacaa9a75d522b39400f90508260e081815250508161010081815250504660a08181525050620001cd8184846200032c60201b60201c565b608081815250503073ffffffffffffffffffffffffffffffffffffffff1660c08173ffffffffffffffffffffffffffffffffffffffff1681525050806101208181525050505050505080600860006101000a81548173ffffffffffffffffffffffffffffffffffffffff021916908373ffffffffffffffffffffffffffffffffffffffff16021790555050620005bc565b600033905090565b6000600760009054906101000a900473ffffffffffffffffffffffffffffffffffffffff16905081600760006101000a81548173ffffffffffffffffffffffffffffffffffffffff021916908373ffffffffffffffffffffffffffffffffffffffff1602179055508173ffffffffffffffffffffffffffffffffffffffff168173ffffffffffffffffffffffffffffffffffffffff167f8be0079c531659141344cd1fd0a4f28419497f9722a3daafe3b4186f6b6457e060405160405180910390a35050565b6000838383463060405160200162000349959493929190620004fb565b6040516020818303038152906040528051906020012090509392505050565b828054620003769062000587565b90600052602060002090601f0160209004810192826200039a5760008555620003e6565b82601f10620003b557805160ff1916838001178555620003e6565b82800160010185558215620003e6579182015b82811115620003e5578251825591602001919060010190620003c8565b5b509050620003f59190620003f9565b5090565b5b8082111562000414576000816000905550600101620003fa565b5090565b600080fd5b600073ffffffffffffffffffffffffffffffffffffffff82169050919050565b60006200044a826200041d565b9050919050565b6200045c816200043d565b81146200046857600080fd5b50565b6000815190506200047c8162000451565b92915050565b6000602082840312156200049b576200049a62000418565b5b6000620004ab848285016200046b565b91505092915050565b6000819050919050565b620004c981620004b4565b82525050565b6000819050919050565b620004e481620004cf565b82525050565b620004f5816200043d565b82525050565b600060a082019050620005126000830188620004be565b620005216020830187620004be565b620005306040830186620004be565b6200053f6060830185620004d9565b6200054e6080830184620004ea565b9695505050505050565b7f4e487b7100000000000000000000000000000000000000000000000000000000600052602260045260246000fd5b60006002820490506001821680620005a057607f821691505b602082108103620005b657620005b562000558565b5b50919050565b60805160a05160c05160e05161010051610120516140946200060c6000396000611e8801526000611eca01526000611ea901526000611dde01526000611e3401526000611e5d01526140946000f3fe6080604052600436106101095760003560e01c8063715018a611610095578063b88d4fde11610064578063b88d4fde1461036e578063c87b56dd14610397578063ca29e8c8146103d4578063e985e9c5146103ff578063f2fde38b1461043c57610109565b8063715018a6146102d85780638da5cb5b146102ef57806395d89b411461031a578063a22cb4651461034557610109565b806323b872dd116100dc57806323b872dd146101dc578063304cdf901461020557806342842e0e146102355780636352211e1461025e57806370a082311461029b57610109565b806301ffc9a71461010e57806306fdde031461014b578063081812fc14610176578063095ea7b3146101b3575b600080fd5b34801561011a57600080fd5b5061013560048036038101906101309190612624565b610465565b604051610142919061266c565b60405180910390f35b34801561015757600080fd5b50610160610547565b60405161016d9190612720565b60405180910390f35b34801561018257600080fd5b5061019d60048036038101906101989190612778565b6105d9565b6040516101aa91906127e6565b60405180910390f35b3480156101bf57600080fd5b506101da60048036038101906101d5919061282d565b61065e565b005b3480156101e857600080fd5b5061020360048036038101906101fe919061286d565b610775565b005b61021f600480360381019061021a9190612949565b6107d5565b60405161022c91906129d4565b60405180910390f35b34801561024157600080fd5b5061025c6004803603810190610257919061286d565b610961565b005b34801561026a57600080fd5b5061028560048036038101906102809190612778565b610981565b60405161029291906127e6565b60405180910390f35b3480156102a757600080fd5b506102c260048036038101906102bd91906129ef565b610a32565b6040516102cf91906129d4565b60405180910390f35b3480156102e457600080fd5b506102ed610ae9565b005b3480156102fb57600080fd5b50610304610b71565b60405161031191906127e6565b60405180910390f35b34801561032657600080fd5b5061032f610b9b565b60405161033c9190612720565b60405180910390f35b34801561035157600080fd5b5061036c60048036038101906103679190612a48565b610c2d565b005b34801561037a57600080fd5b5061039560048036038101906103909190612bb8565b610c43565b005b3480156103a357600080fd5b506103be60048036038101906103b99190612778565b610ca5565b6040516103cb9190612720565b60405180910390f35b3480156103e057600080fd5b506103e9610df6565b6040516103f691906127e6565b60405180910390f35b34801561040b57600080fd5b5061042660048036038101906104219190612c3b565b610e1c565b604051610433919061266c565b60405180910390f35b34801561044857600080fd5b50610463600480360381019061045e91906129ef565b610eb0565b005b60007f80ac58cd000000000000000000000000000000000000000000000000000000007bffffffffffffffffffffffffffffffffffffffffffffffffffffffff1916827bffffffffffffffffffffffffffffffffffffffffffffffffffffffff1916148061053057507f5b5e139f000000000000000000000000000000000000000000000000000000007bffffffffffffffffffffffffffffffffffffffffffffffffffffffff1916827bffffffffffffffffffffffffffffffffffffffffffffffffffffffff1916145b80610540575061053f82610fa7565b5b9050919050565b60606000805461055690612caa565b80601f016020809104026020016040519081016040528092919081815260200182805461058290612caa565b80156105cf5780601f106105a4576101008083540402835291602001916105cf565b820191906000526020600020905b8154815290600101906020018083116105b257829003601f168201915b5050505050905090565b60006105e482611011565b610623576040517f08c379a000000000000000000000000000000000000000000000000000000000815260040161061a90612d4d565b60405180910390fd5b6004600083815260200190815260200160002060009054906101000a900473ffffffffffffffffffffffffffffffffffffffff169050919050565b600061066982610981565b90508073ffffffffffffffffffffffffffffffffffffffff168373ffffffffffffffffffffffffffffffffffffffff16036106d9576040517f08c379a00000000000000000000000000000000000000000000000000000000081526004016106d090612ddf565b60405180910390fd5b8073ffffffffffffffffffffffffffffffffffffffff166106f861107d565b73ffffffffffffffffffffffffffffffffffffffff16148061072757506107268161072161107d565b610e1c565b5b610766576040517f08c379a000000000000000000000000000000000000000000000000000000000815260040161075d90612e71565b60405180910390fd5b6107708383611085565b505050565b61078661078061107d565b8261113e565b6107c5576040517f08c379a00000000000000000000000000000000000000000000000000000000081526004016107bc90612f03565b60405180910390fd5b6107d083838361121c565b505050565b60008360200135341461081d576040517f08c379a000000000000000000000000000000000000000000000000000000000815260040161081490612f95565b60405180910390fd5b61087361082985611482565b84848080601f016020809104026020016040519081016040528093929190818152602001838380828437600081840152601f19601f82011690508083019250505050505050611512565b6108b2576040517f08c379a00000000000000000000000000000000000000000000000000000000081526004016108a990613001565b60405180910390fd5b6108c76108bd61107d565b856000013561157b565b61092784600001358580604001906108df9190613030565b8080601f016020809104026020016040519081016040528093929190818152602001838380828437600081840152601f19601f82011690508083019250505050505050611599565b610953600860009054906101000a900473ffffffffffffffffffffffffffffffffffffffff163461160d565b836000013590509392505050565b61097c83838360405180602001604052806000815250610c43565b505050565b6000806002600084815260200190815260200160002060009054906101000a900473ffffffffffffffffffffffffffffffffffffffff169050600073ffffffffffffffffffffffffffffffffffffffff168173ffffffffffffffffffffffffffffffffffffffff1603610a29576040517f08c379a0000000000000000000000000000000000000000000000000000000008152600401610a2090613105565b60405180910390fd5b80915050919050565b60008073ffffffffffffffffffffffffffffffffffffffff168273ffffffffffffffffffffffffffffffffffffffff1603610aa2576040517f08c379a0000000000000000000000000000000000000000000000000000000008152600401610a9990613197565b60405180910390fd5b600360008373ffffffffffffffffffffffffffffffffffffffff1673ffffffffffffffffffffffffffffffffffffffff168152602001908152602001600020549050919050565b610af161107d565b73ffffffffffffffffffffffffffffffffffffffff16610b0f610b71565b73ffffffffffffffffffffffffffffffffffffffff1614610b65576040517f08c379a0000000000000000000000000000000000000000000000000000000008152600401610b5c90613203565b60405180910390fd5b610b6f6000611701565b565b6000600760009054906101000a900473ffffffffffffffffffffffffffffffffffffffff16905090565b606060018054610baa90612caa565b80601f0160208091040260200160405190810160405280929190818152602001828054610bd690612caa565b8015610c235780601f10610bf857610100808354040283529160200191610c23565b820191906000526020600020905b815481529060010190602001808311610c0657829003601f168201915b5050505050905090565b610c3f610c3861107d565b83836117c7565b5050565b610c54610c4e61107d565b8361113e565b610c93576040517f08c379a0000000000000000000000000000000000000000000000000000000008152600401610c8a90612f03565b60405180910390fd5b610c9f84848484611933565b50505050565b6060610cb082611011565b610cef576040517f08c379a0000000000000000000000000000000000000000000000000000000008152600401610ce690613295565b60405180910390fd5b6000600660008481526020019081526020016000208054610d0f90612caa565b80601f0160208091040260200160405190810160405280929190818152602001828054610d3b90612caa565b8015610d885780601f10610d5d57610100808354040283529160200191610d88565b820191906000526020600020905b815481529060010190602001808311610d6b57829003601f168201915b505050505090506000610d9961198f565b90506000815103610dae578192505050610df1565b600082511115610de3578082604051602001610dcb9291906132f1565b60405160208183030381529060405292505050610df1565b610dec846119a6565b925050505b919050565b600860009054906101000a900473ffffffffffffffffffffffffffffffffffffffff1681565b6000600560008473ffffffffffffffffffffffffffffffffffffffff1673ffffffffffffffffffffffffffffffffffffffff16815260200190815260200160002060008373ffffffffffffffffffffffffffffffffffffffff1673ffffffffffffffffffffffffffffffffffffffff16815260200190815260200160002060009054906101000a900460ff16905092915050565b610eb861107d565b73ffffffffffffffffffffffffffffffffffffffff16610ed6610b71565b73ffffffffffffffffffffffffffffffffffffffff1614610f2c576040517f08c379a0000000000000000000000000000000000000000000000000000000008152600401610f2390613203565b60405180910390fd5b600073ffffffffffffffffffffffffffffffffffffffff168173ffffffffffffffffffffffffffffffffffffffff1603610f9b576040517f08c379a0000000000000000000000000000000000000000000000000000000008152600401610f9290613387565b60405180910390fd5b610fa481611701565b50565b60007f01ffc9a7000000000000000000000000000000000000000000000000000000007bffffffffffffffffffffffffffffffffffffffffffffffffffffffff1916827bffffffffffffffffffffffffffffffffffffffffffffffffffffffff1916149050919050565b60008073ffffffffffffffffffffffffffffffffffffffff166002600084815260200190815260200160002060009054906101000a900473ffffffffffffffffffffffffffffffffffffffff1673ffffffffffffffffffffffffffffffffffffffff1614159050919050565b600033905090565b816004600083815260200190815260200160002060006101000a81548173ffffffffffffffffffffffffffffffffffffffff021916908373ffffffffffffffffffffffffffffffffffffffff160217905550808273ffffffffffffffffffffffffffffffffffffffff166110f883610981565b73ffffffffffffffffffffffffffffffffffffffff167f8c5be1e5ebec7d5bd14f71427d1e84f3dd0314c0f7b2291e5b200ac8c7c3b92560405160405180910390a45050565b600061114982611011565b611188576040517f08c379a000000000000000000000000000000000000000000000000000000000815260040161117f90613419565b60405180910390fd5b600061119383610981565b90508073ffffffffffffffffffffffffffffffffffffffff168473ffffffffffffffffffffffffffffffffffffffff1614806111d557506111d48185610e1c565b5b8061121357508373ffffffffffffffffffffffffffffffffffffffff166111fb846105d9565b73ffffffffffffffffffffffffffffffffffffffff16145b91505092915050565b8273ffffffffffffffffffffffffffffffffffffffff1661123c82610981565b73ffffffffffffffffffffffffffffffffffffffff1614611292576040517f08c379a0000000000000000000000000000000000000000000000000000000008152600401611289906134ab565b60405180910390fd5b600073ffffffffffffffffffffffffffffffffffffffff168273ffffffffffffffffffffffffffffffffffffffff1603611301576040517f08c379a00000000000000000000000000000000000000000000000000000000081526004016112f89061353d565b60405180910390fd5b61130c838383611a4d565b611317600082611085565b6001600360008573ffffffffffffffffffffffffffffffffffffffff1673ffffffffffffffffffffffffffffffffffffffff1681526020019081526020016000206000828254611367919061358c565b925050819055506001600360008473ffffffffffffffffffffffffffffffffffffffff1673ffffffffffffffffffffffffffffffffffffffff16815260200190815260200160002060008282546113be91906135c0565b92505081905550816002600083815260200190815260200160002060006101000a81548173ffffffffffffffffffffffffffffffffffffffff021916908373ffffffffffffffffffffffffffffffffffffffff160217905550808273ffffffffffffffffffffffffffffffffffffffff168473ffffffffffffffffffffffffffffffffffffffff167fddf252ad1be2c89b69c2b068fc378daa952ba7f163c4a11628f55a4df523b3ef60405160405180910390a461147d838383611a52565b505050565b6000806115077f6217db7ed205fcb546b31f7cbc64e62b2d376dc84b0195749af2b916dec915fd846000013585602001358680604001906114c39190613030565b6040516114d1929190613646565b60405180910390206040516020016114ec9493929190613678565b60405160208183030381529060405280519060200120611a57565b905080915050919050565b60008061151f8484611a71565b90508073ffffffffffffffffffffffffffffffffffffffff16600860009054906101000a900473ffffffffffffffffffffffffffffffffffffffff1673ffffffffffffffffffffffffffffffffffffffff161491505092915050565b611595828260405180602001604052806000815250611a98565b5050565b6115a282611011565b6115e1576040517f08c379a00000000000000000000000000000000000000000000000000000000081526004016115d89061372f565b60405180910390fd5b80600660008481526020019081526020016000209080519060200190611608929190612515565b505050565b80471015611650576040517f08c379a00000000000000000000000000000000000000000000000000000000081526004016116479061379b565b60405180910390fd5b60008273ffffffffffffffffffffffffffffffffffffffff1682604051611676906137e1565b60006040518083038185875af1925050503d80600081146116b3576040519150601f19603f3d011682016040523d82523d6000602084013e6116b8565b606091505b50509050806116fc576040517f08c379a00000000000000000000000000000000000000000000000000000000081526004016116f390613868565b60405180910390fd5b505050565b6000600760009054906101000a900473ffffffffffffffffffffffffffffffffffffffff16905081600760006101000a81548173ffffffffffffffffffffffffffffffffffffffff021916908373ffffffffffffffffffffffffffffffffffffffff1602179055508173ffffffffffffffffffffffffffffffffffffffff168173ffffffffffffffffffffffffffffffffffffffff167f8be0079c531659141344cd1fd0a4f28419497f9722a3daafe3b4186f6b6457e060405160405180910390a35050565b8173ffffffffffffffffffffffffffffffffffffffff168373ffffffffffffffffffffffffffffffffffffffff1603611835576040517f08c379a000000000000000000000000000000000000000000000000000000000815260040161182c906138d4565b60405180910390fd5b80600560008573ffffffffffffffffffffffffffffffffffffffff1673ffffffffffffffffffffffffffffffffffffffff16815260200190815260200160002060008473ffffffffffffffffffffffffffffffffffffffff1673ffffffffffffffffffffffffffffffffffffffff16815260200190815260200160002060006101000a81548160ff0219169083151502179055508173ffffffffffffffffffffffffffffffffffffffff168373ffffffffffffffffffffffffffffffffffffffff167f17307eab39ab6107e8899845ad3d59bd9653f200f220920489ca2b5937696c3183604051611926919061266c565b60405180910390a3505050565b61193e84848461121c565b61194a84848484611af3565b611989576040517f08c379a000000000000000000000000000000000000000000000000000000000815260040161198090613966565b60405180910390fd5b50505050565b606060405180602001604052806000815250905090565b60606119b182611011565b6119f0576040517f08c379a00000000000000000000000000000000000000000000000000000000081526004016119e7906139f8565b60405180910390fd5b60006119fa61198f565b90506000815111611a1a5760405180602001604052806000815250611a45565b80611a2484611c7a565b604051602001611a359291906132f1565b6040516020818303038152906040525b915050919050565b505050565b505050565b6000611a6a611a64611dda565b83611ef4565b9050919050565b6000806000611a808585611f27565b91509150611a8d81611fa8565b819250505092915050565b611aa28383612174565b611aaf6000848484611af3565b611aee576040517f08c379a0000000000000000000000000000000000000000000000000000000008152600401611ae590613966565b60405180910390fd5b505050565b6000611b148473ffffffffffffffffffffffffffffffffffffffff1661234d565b15611c6d578373ffffffffffffffffffffffffffffffffffffffff1663150b7a02611b3d61107d565b8786866040518563ffffffff1660e01b8152600401611b5f9493929190613a6d565b6020604051808303816000875af1925050508015611b9b57506040513d601f19601f82011682018060405250810190611b989190613ace565b60015b611c1d573d8060008114611bcb576040519150601f19603f3d011682016040523d82523d6000602084013e611bd0565b606091505b506000815103611c15576040517f08c379a0000000000000000000000000000000000000000000000000000000008152600401611c0c90613966565b60405180910390fd5b805181602001fd5b63150b7a0260e01b7bffffffffffffffffffffffffffffffffffffffffffffffffffffffff1916817bffffffffffffffffffffffffffffffffffffffffffffffffffffffff191614915050611c72565b600190505b949350505050565b606060008203611cc1576040518060400160405280600181526020017f30000000000000000000000000000000000000000000000000000000000000008152509050611dd5565b600082905060005b60008214611cf3578080611cdc90613afb565b915050600a82611cec9190613b72565b9150611cc9565b60008167ffffffffffffffff811115611d0f57611d0e612a8d565b5b6040519080825280601f01601f191660200182016040528015611d415781602001600182028036833780820191505090505b5090505b60008514611dce57600182611d5a919061358c565b9150600a85611d699190613ba3565b6030611d7591906135c0565b60f81b818381518110611d8b57611d8a613bd4565b5b60200101907effffffffffffffffffffffffffffffffffffffffffffffffffffffffffffff1916908160001a905350600a85611dc79190613b72565b9450611d45565b8093505050505b919050565b60007f000000000000000000000000000000000000000000000000000000000000000073ffffffffffffffffffffffffffffffffffffffff163073ffffffffffffffffffffffffffffffffffffffff16148015611e5657507f000000000000000000000000000000000000000000000000000000000000000046145b15611e83577f00000000000000000000000000000000000000000000000000000000000000009050611ef1565b611eee7f00000000000000000000000000000000000000000000000000000000000000007f00000000000000000000000000000000000000000000000000000000000000007f0000000000000000000000000000000000000000000000000000000000000000612370565b90505b90565b60008282604051602001611f09929190613c70565b60405160208183030381529060405280519060200120905092915050565b6000806041835103611f685760008060006020860151925060408601519150606086015160001a9050611f5c878285856123aa565b94509450505050611fa1565b6040835103611f98576000806020850151915060408501519050611f8d8683836124b6565b935093505050611fa1565b60006002915091505b9250929050565b60006004811115611fbc57611fbb613ca7565b5b816004811115611fcf57611fce613ca7565b5b03156121715760016004811115611fe957611fe8613ca7565b5b816004811115611ffc57611ffb613ca7565b5b0361203c576040517f08c379a000000000000000000000000000000000000000000000000000000000815260040161203390613d22565b60405180910390fd5b600260048111156120505761204f613ca7565b5b81600481111561206357612062613ca7565b5b036120a3576040517f08c379a000000000000000000000000000000000000000000000000000000000815260040161209a90613d8e565b60405180910390fd5b600360048111156120b7576120b6613ca7565b5b8160048111156120ca576120c9613ca7565b5b0361210a576040517f08c379a000000000000000000000000000000000000000000000000000000000815260040161210190613e20565b60405180910390fd5b60048081111561211d5761211c613ca7565b5b8160048111156121305761212f613ca7565b5b03612170576040517f08c379a000000000000000000000000000000000000000000000000000000000815260040161216790613eb2565b60405180910390fd5b5b50565b600073ffffffffffffffffffffffffffffffffffffffff168273ffffffffffffffffffffffffffffffffffffffff16036121e3576040517f08c379a00000000000000000000000000000000000000000000000000000000081526004016121da90613f1e565b60405180910390fd5b6121ec81611011565b1561222c576040517f08c379a000000000000000000000000000000000000000000000000000000000815260040161222390613f8a565b60405180910390fd5b61223860008383611a4d565b6001600360008473ffffffffffffffffffffffffffffffffffffffff1673ffffffffffffffffffffffffffffffffffffffff168152602001908152602001600020600082825461228891906135c0565b92505081905550816002600083815260200190815260200160002060006101000a81548173ffffffffffffffffffffffffffffffffffffffff021916908373ffffffffffffffffffffffffffffffffffffffff160217905550808273ffffffffffffffffffffffffffffffffffffffff16600073ffffffffffffffffffffffffffffffffffffffff167fddf252ad1be2c89b69c2b068fc378daa952ba7f163c4a11628f55a4df523b3ef60405160405180910390a461234960008383611a52565b5050565b6000808273ffffffffffffffffffffffffffffffffffffffff163b119050919050565b6000838383463060405160200161238b959493929190613faa565b6040516020818303038152906040528051906020012090509392505050565b6000807f7fffffffffffffffffffffffffffffff5d576e7357a4501ddfe92f46681b20a08360001c11156123e55760006003915091506124ad565b601b8560ff16141580156123fd5750601c8560ff1614155b1561240f5760006004915091506124ad565b6000600187878787604051600081526020016040526040516124349493929190614019565b6020604051602081039080840390855afa158015612456573d6000803e3d6000fd5b505050602060405103519050600073ffffffffffffffffffffffffffffffffffffffff168173ffffffffffffffffffffffffffffffffffffffff16036124a4576000600192509250506124ad565b80600092509250505b94509492505050565b60008060007f7fffffffffffffffffffffffffffffffffffffffffffffffffffffffffffffff60001b841690506000601b60ff8660001c901c6124f991906135c0565b9050612507878288856123aa565b935093505050935093915050565b82805461252190612caa565b90600052602060002090601f016020900481019282612543576000855561258a565b82601f1061255c57805160ff191683800117855561258a565b8280016001018555821561258a579182015b8281111561258957825182559160200191906001019061256e565b5b509050612597919061259b565b5090565b5b808211156125b457600081600090555060010161259c565b5090565b6000604051905090565b600080fd5b600080fd5b60007fffffffff0000000000000000000000000000000000000000000000000000000082169050919050565b612601816125cc565b811461260c57600080fd5b50565b60008135905061261e816125f8565b92915050565b60006020828403121561263a576126396125c2565b5b60006126488482850161260f565b91505092915050565b60008115159050919050565b61266681612651565b82525050565b6000602082019050612681600083018461265d565b92915050565b600081519050919050565b600082825260208201905092915050565b60005b838110156126c15780820151818401526020810190506126a6565b838111156126d0576000848401525b50505050565b6000601f19601f8301169050919050565b60006126f282612687565b6126fc8185612692565b935061270c8185602086016126a3565b612715816126d6565b840191505092915050565b6000602082019050818103600083015261273a81846126e7565b905092915050565b6000819050919050565b61275581612742565b811461276057600080fd5b50565b6000813590506127728161274c565b92915050565b60006020828403121561278e5761278d6125c2565b5b600061279c84828501612763565b91505092915050565b600073ffffffffffffffffffffffffffffffffffffffff82169050919050565b60006127d0826127a5565b9050919050565b6127e0816127c5565b82525050565b60006020820190506127fb60008301846127d7565b92915050565b61280a816127c5565b811461281557600080fd5b50565b60008135905061282781612801565b92915050565b60008060408385031215612844576128436125c2565b5b600061285285828601612818565b925050602061286385828601612763565b9150509250929050565b600080600060608486031215612886576128856125c2565b5b600061289486828701612818565b93505060206128a586828701612818565b92505060406128b686828701612763565b9150509250925092565b600080fd5b6000606082840312156128db576128da6128c0565b5b81905092915050565b600080fd5b600080fd5b600080fd5b60008083601f840112612909576129086128e4565b5b8235905067ffffffffffffffff811115612926576129256128e9565b5b602083019150836001820283011115612942576129416128ee565b5b9250929050565b600080600060408486031215612962576129616125c2565b5b600084013567ffffffffffffffff8111156129805761297f6125c7565b5b61298c868287016128c5565b935050602084013567ffffffffffffffff8111156129ad576129ac6125c7565b5b6129b9868287016128f3565b92509250509250925092565b6129ce81612742565b82525050565b60006020820190506129e960008301846129c5565b92915050565b600060208284031215612a0557612a046125c2565b5b6000612a1384828501612818565b91505092915050565b612a2581612651565b8114612a3057600080fd5b50565b600081359050612a4281612a1c565b92915050565b60008060408385031215612a5f57612a5e6125c2565b5b6000612a6d85828601612818565b9250506020612a7e85828601612a33565b9150509250929050565b600080fd5b7f4e487b7100000000000000000000000000000000000000000000000000000000600052604160045260246000fd5b612ac5826126d6565b810181811067ffffffffffffffff82111715612ae457612ae3612a8d565b5b80604052505050565b6000612af76125b8565b9050612b038282612abc565b919050565b600067ffffffffffffffff821115612b2357612b22612a8d565b5b612b2c826126d6565b9050602081019050919050565b82818337600083830152505050565b6000612b5b612b5684612b08565b612aed565b905082815260208101848484011115612b7757612b76612a88565b5b612b82848285612b39565b509392505050565b600082601f830112612b9f57612b9e6128e4565b5b8135612baf848260208601612b48565b91505092915050565b60008060008060808587031215612bd257612bd16125c2565b5b6000612be087828801612818565b9450506020612bf187828801612818565b9350506040612c0287828801612763565b925050606085013567ffffffffffffffff811115612c2357612c226125c7565b5b612c2f87828801612b8a565b91505092959194509250565b60008060408385031215612c5257612c516125c2565b5b6000612c6085828601612818565b9250506020612c7185828601612818565b9150509250929050565b7f4e487b7100000000000000000000000000000000000000000000000000000000600052602260045260246000fd5b60006002820490506001821680612cc257607f821691505b602082108103612cd557612cd4612c7b565b5b50919050565b7f4552433732313a20617070726f76656420717565727920666f72206e6f6e657860008201527f697374656e7420746f6b656e0000000000000000000000000000000000000000602082015250565b6000612d37602c83612692565b9150612d4282612cdb565b604082019050919050565b60006020820190508181036000830152612d6681612d2a565b9050919050565b7f4552433732313a20617070726f76616c20746f2063757272656e74206f776e6560008201527f7200000000000000000000000000000000000000000000000000000000000000602082015250565b6000612dc9602183612692565b9150612dd482612d6d565b604082019050919050565b60006020820190508181036000830152612df881612dbc565b9050919050565b7f4552433732313a20617070726f76652063616c6c6572206973206e6f74206f7760008201527f6e6572206e6f7220617070726f76656420666f7220616c6c0000000000000000602082015250565b6000612e5b603883612692565b9150612e6682612dff565b604082019050919050565b60006020820190508181036000830152612e8a81612e4e565b9050919050565b7f4552433732313a207472616e736665722063616c6c6572206973206e6f74206f60008201527f776e6572206e6f7220617070726f766564000000000000000000000000000000602082015250565b6000612eed603183612692565b9150612ef882612e91565b604082019050919050565b60006020820190508181036000830152612f1c81612ee0565b9050919050565b7f53696d6f6e4465764e46543a204d6573736167652076616c756520213d20707260008201527f6963650000000000000000000000000000000000000000000000000000000000602082015250565b6000612f7f602383612692565b9150612f8a82612f23565b604082019050919050565b60006020820190508181036000830152612fae81612f72565b9050919050565b7f53696d6f6e4465764e46543a20496e76616c6964207369676e61747572650000600082015250565b6000612feb601e83612692565b9150612ff682612fb5565b602082019050919050565b6000602082019050818103600083015261301a81612fde565b9050919050565b600080fd5b600080fd5b600080fd5b6000808335600160200384360303811261304d5761304c613021565b5b80840192508235915067ffffffffffffffff82111561306f5761306e613026565b5b60208301925060018202360383131561308b5761308a61302b565b5b509250929050565b7f4552433732313a206f776e657220717565727920666f72206e6f6e657869737460008201527f656e7420746f6b656e0000000000000000000000000000000000000000000000602082015250565b60006130ef602983612692565b91506130fa82613093565b604082019050919050565b6000602082019050818103600083015261311e816130e2565b9050919050565b7f4552433732313a2062616c616e636520717565727920666f7220746865207a6560008201527f726f206164647265737300000000000000000000000000000000000000000000602082015250565b6000613181602a83612692565b915061318c82613125565b604082019050919050565b600060208201905081810360008301526131b081613174565b9050919050565b7f4f776e61626c653a2063616c6c6572206973206e6f7420746865206f776e6572600082015250565b60006131ed602083612692565b91506131f8826131b7565b602082019050919050565b6000602082019050818103600083015261321c816131e0565b9050919050565b7f45524337323155524953746f726167653a2055524920717565727920666f722060008201527f6e6f6e6578697374656e7420746f6b656e000000000000000000000000000000602082015250565b600061327f603183612692565b915061328a82613223565b604082019050919050565b600060208201905081810360008301526132ae81613272565b9050919050565b600081905092915050565b60006132cb82612687565b6132d581856132b5565b93506132e58185602086016126a3565b80840191505092915050565b60006132fd82856132c0565b915061330982846132c0565b91508190509392505050565b7f4f776e61626c653a206e6577206f776e657220697320746865207a65726f206160008201527f6464726573730000000000000000000000000000000000000000000000000000602082015250565b6000613371602683612692565b915061337c82613315565b604082019050919050565b600060208201905081810360008301526133a081613364565b9050919050565b7f4552433732313a206f70657261746f7220717565727920666f72206e6f6e657860008201527f697374656e7420746f6b656e0000000000000000000000000000000000000000602082015250565b6000613403602c83612692565b915061340e826133a7565b604082019050919050565b60006020820190508181036000830152613432816133f6565b9050919050565b7f4552433732313a207472616e736665722066726f6d20696e636f72726563742060008201527f6f776e6572000000000000000000000000000000000000000000000000000000602082015250565b6000613495602583612692565b91506134a082613439565b604082019050919050565b600060208201905081810360008301526134c481613488565b9050919050565b7f4552433732313a207472616e7366657220746f20746865207a65726f2061646460008201527f7265737300000000000000000000000000000000000000000000000000000000602082015250565b6000613527602483612692565b9150613532826134cb565b604082019050919050565b600060208201905081810360008301526135568161351a565b9050919050565b7f4e487b7100000000000000000000000000000000000000000000000000000000600052601160045260246000fd5b600061359782612742565b91506135a283612742565b9250828210156135b5576135b461355d565b5b828203905092915050565b60006135cb82612742565b91506135d683612742565b9250827fffffffffffffffffffffffffffffffffffffffffffffffffffffffffffffffff0382111561360b5761360a61355d565b5b828201905092915050565b600081905092915050565b600061362d8385613616565b935061363a838584612b39565b82840190509392505050565b6000613653828486613621565b91508190509392505050565b6000819050919050565b6136728161365f565b82525050565b600060808201905061368d6000830187613669565b61369a60208301866129c5565b6136a760408301856129c5565b6136b46060830184613669565b95945050505050565b7f45524337323155524953746f726167653a2055524920736574206f66206e6f6e60008201527f6578697374656e7420746f6b656e000000000000000000000000000000000000602082015250565b6000613719602e83612692565b9150613724826136bd565b604082019050919050565b600060208201905081810360008301526137488161370c565b9050919050565b7f416464726573733a20696e73756666696369656e742062616c616e6365000000600082015250565b6000613785601d83612692565b91506137908261374f565b602082019050919050565b600060208201905081810360008301526137b481613778565b9050919050565b50565b60006137cb600083613616565b91506137d6826137bb565b600082019050919050565b60006137ec826137be565b9150819050919050565b7f416464726573733a20756e61626c6520746f2073656e642076616c75652c207260008201527f6563697069656e74206d61792068617665207265766572746564000000000000602082015250565b6000613852603a83612692565b915061385d826137f6565b604082019050919050565b6000602082019050818103600083015261388181613845565b9050919050565b7f4552433732313a20617070726f766520746f2063616c6c657200000000000000600082015250565b60006138be601983612692565b91506138c982613888565b602082019050919050565b600060208201905081810360008301526138ed816138b1565b9050919050565b7f4552433732313a207472616e7366657220746f206e6f6e20455243373231526560008201527f63656976657220696d706c656d656e7465720000000000000000000000000000602082015250565b6000613950603283612692565b915061395b826138f4565b604082019050919050565b6000602082019050818103600083015261397f81613943565b9050919050565b7f4552433732314d657461646174613a2055524920717565727920666f72206e6f60008201527f6e6578697374656e7420746f6b656e0000000000000000000000000000000000602082015250565b60006139e2602f83612692565b91506139ed82613986565b604082019050919050565b60006020820190508181036000830152613a11816139d5565b9050919050565b600081519050919050565b600082825260208201905092915050565b6000613a3f82613a18565b613a498185613a23565b9350613a598185602086016126a3565b613a62816126d6565b840191505092915050565b6000608082019050613a8260008301876127d7565b613a8f60208301866127d7565b613a9c60408301856129c5565b8181036060830152613aae8184613a34565b905095945050505050565b600081519050613ac8816125f8565b92915050565b600060208284031215613ae457613ae36125c2565b5b6000613af284828501613ab9565b91505092915050565b6000613b0682612742565b91507fffffffffffffffffffffffffffffffffffffffffffffffffffffffffffffffff8203613b3857613b3761355d565b5b600182019050919050565b7f4e487b7100000000000000000000000000000000000000000000000000000000600052601260045260246000fd5b6000613b7d82612742565b9150613b8883612742565b925082613b9857613b97613b43565b5b828204905092915050565b6000613bae82612742565b9150613bb983612742565b925082613bc957613bc8613b43565b5b828206905092915050565b7f4e487b7100000000000000000000000000000000000000000000000000000000600052603260045260246000fd5b7f1901000000000000000000000000000000000000000000000000000000000000600082015250565b6000613c396002836132b5565b9150613c4482613c03565b600282019050919050565b6000819050919050565b613c6a613c658261365f565b613c4f565b82525050565b6000613c7b82613c2c565b9150613c878285613c59565b602082019150613c978284613c59565b6020820191508190509392505050565b7f4e487b7100000000000000000000000000000000000000000000000000000000600052602160045260246000fd5b7f45434453413a20696e76616c6964207369676e61747572650000000000000000600082015250565b6000613d0c601883612692565b9150613d1782613cd6565b602082019050919050565b60006020820190508181036000830152613d3b81613cff565b9050919050565b7f45434453413a20696e76616c6964207369676e6174757265206c656e67746800600082015250565b6000613d78601f83612692565b9150613d8382613d42565b602082019050919050565b60006020820190508181036000830152613da781613d6b565b9050919050565b7f45434453413a20696e76616c6964207369676e6174757265202773272076616c60008201527f7565000000000000000000000000000000000000000000000000000000000000602082015250565b6000613e0a602283612692565b9150613e1582613dae565b604082019050919050565b60006020820190508181036000830152613e3981613dfd565b9050919050565b7f45434453413a20696e76616c6964207369676e6174757265202776272076616c60008201527f7565000000000000000000000000000000000000000000000000000000000000602082015250565b6000613e9c602283612692565b9150613ea782613e40565b604082019050919050565b60006020820190508181036000830152613ecb81613e8f565b9050919050565b7f4552433732313a206d696e7420746f20746865207a65726f2061646472657373600082015250565b6000613f08602083612692565b9150613f1382613ed2565b602082019050919050565b60006020820190508181036000830152613f3781613efb565b9050919050565b7f4552433732313a20746f6b656e20616c7265616479206d696e74656400000000600082015250565b6000613f74601c83612692565b9150613f7f82613f3e565b602082019050919050565b60006020820190508181036000830152613fa381613f67565b9050919050565b600060a082019050613fbf6000830188613669565b613fcc6020830187613669565b613fd96040830186613669565b613fe660608301856129c5565b613ff360808301846127d7565b9695505050505050565b600060ff82169050919050565b61401381613ffd565b82525050565b600060808201905061402e6000830187613669565b61403b602083018661400a565b6140486040830185613669565b6140556060830184613669565b9594505050505056fea26469706673582212205294075a4b7d09dccc309b623df383b29837acc627aee21c1bfa425528aa3cbc64736f6c634300080e0033",
  "linkReferences": {},
  "deployedLinkReferences": {}
}