{
  "_format": "hh-sol-artifact-1",
  "contractName": "LazyNFT",
  "sourceName": "src/backend/contracts/LazyNFT.sol",
  "abi": [
    {
      "inputs": [],
      "stateMutability": "nonpayable",
      "type": "constructor"
    },
    {
      "anonymous": false,
      "inputs": [
        {
          "indexed": true,
          "internalType": "address",
          "name": "owner",
          "type": "address"
        },
        {
          "indexed": true,
          "internalType": "address",
          "name": "approved",
          "type": "address"
        },
        {
          "indexed": true,
          "internalType": "uint256",
          "name": "tokenId",
          "type": "uint256"
        }
      ],
      "name": "Approval",
      "type": "event"
    },
    {
      "anonymous": false,
      "inputs": [
        {
          "indexed": true,
          "internalType": "address",
          "name": "owner",
          "type": "address"
        },
        {
          "indexed": true,
          "internalType": "address",
          "name": "operator",
          "type": "address"
        },
        {
          "indexed": false,
          "internalType": "bool",
          "name": "approved",
          "type": "bool"
        }
      ],
      "name": "ApprovalForAll",
      "type": "event"
    },
    {
      "anonymous": false,
      "inputs": [
        {
          "indexed": true,
          "internalType": "address",
          "name": "previousOwner",
          "type": "address"
        },
        {
          "indexed": true,
          "internalType": "address",
          "name": "newOwner",
          "type": "address"
        }
      ],
      "name": "OwnershipTransferred",
      "type": "event"
    },
    {
      "anonymous": false,
      "inputs": [
        {
          "indexed": true,
          "internalType": "address",
          "name": "from",
          "type": "address"
        },
        {
          "indexed": true,
          "internalType": "address",
          "name": "to",
          "type": "address"
        },
        {
          "indexed": true,
          "internalType": "uint256",
          "name": "tokenId",
          "type": "uint256"
        }
      ],
      "name": "Transfer",
      "type": "event"
    },
    {
      "inputs": [
        {
          "internalType": "address",
          "name": "to",
          "type": "address"
        },
        {
          "internalType": "uint256",
          "name": "tokenId",
          "type": "uint256"
        }
      ],
      "name": "approve",
      "outputs": [],
      "stateMutability": "nonpayable",
      "type": "function"
    },
    {
      "inputs": [
        {
          "internalType": "address",
          "name": "owner",
          "type": "address"
        }
      ],
      "name": "balanceOf",
      "outputs": [
        {
          "internalType": "uint256",
          "name": "",
          "type": "uint256"
        }
      ],
      "stateMutability": "view",
      "type": "function"
    },
    {
      "inputs": [
        {
          "internalType": "uint256",
          "name": "tokenId",
          "type": "uint256"
        }
      ],
      "name": "getApproved",
      "outputs": [
        {
          "internalType": "address",
          "name": "",
          "type": "address"
        }
      ],
      "stateMutability": "view",
      "type": "function"
    },
    {
      "inputs": [
        {
          "internalType": "address",
          "name": "owner",
          "type": "address"
        },
        {
          "internalType": "address",
          "name": "operator",
          "type": "address"
        }
      ],
      "name": "isApprovedForAll",
      "outputs": [
        {
          "internalType": "bool",
          "name": "",
          "type": "bool"
        }
      ],
      "stateMutability": "view",
      "type": "function"
    },
    {
      "inputs": [
        {
          "components": [
            {
              "internalType": "uint256",
              "name": "tokenID",
              "type": "uint256"
            },
            {
              "internalType": "uint256",
              "name": "price",
              "type": "uint256"
            },
            {
              "internalType": "string",
              "name": "uri",
              "type": "string"
            },
            {
              "internalType": "address",
              "name": "creator",
              "type": "address"
            }
          ],
          "internalType": "struct LazyNFT.SignedNFTData",
          "name": "nft",
          "type": "tuple"
        },
        {
          "internalType": "bytes",
          "name": "signature",
          "type": "bytes"
        }
      ],
      "name": "lazyMintNFT",
      "outputs": [
        {
          "internalType": "uint256",
          "name": "",
          "type": "uint256"
        }
      ],
      "stateMutability": "payable",
      "type": "function"
    },
    {
      "inputs": [],
      "name": "name",
      "outputs": [
        {
          "internalType": "string",
          "name": "",
          "type": "string"
        }
      ],
      "stateMutability": "view",
      "type": "function"
    },
    {
      "inputs": [],
      "name": "owner",
      "outputs": [
        {
          "internalType": "address",
          "name": "",
          "type": "address"
        }
      ],
      "stateMutability": "view",
      "type": "function"
    },
    {
      "inputs": [
        {
          "internalType": "uint256",
          "name": "tokenId",
          "type": "uint256"
        }
      ],
      "name": "ownerOf",
      "outputs": [
        {
          "internalType": "address",
          "name": "",
          "type": "address"
        }
      ],
      "stateMutability": "view",
      "type": "function"
    },
    {
      "inputs": [],
      "name": "renounceOwnership",
      "outputs": [],
      "stateMutability": "nonpayable",
      "type": "function"
    },
    {
      "inputs": [
        {
          "internalType": "address",
          "name": "from",
          "type": "address"
        },
        {
          "internalType": "address",
          "name": "to",
          "type": "address"
        },
        {
          "internalType": "uint256",
          "name": "tokenId",
          "type": "uint256"
        }
      ],
      "name": "safeTransferFrom",
      "outputs": [],
      "stateMutability": "nonpayable",
      "type": "function"
    },
    {
      "inputs": [
        {
          "internalType": "address",
          "name": "from",
          "type": "address"
        },
        {
          "internalType": "address",
          "name": "to",
          "type": "address"
        },
        {
          "internalType": "uint256",
          "name": "tokenId",
          "type": "uint256"
        },
        {
          "internalType": "bytes",
          "name": "_data",
          "type": "bytes"
        }
      ],
      "name": "safeTransferFrom",
      "outputs": [],
      "stateMutability": "nonpayable",
      "type": "function"
    },
    {
      "inputs": [
        {
          "internalType": "address",
          "name": "operator",
          "type": "address"
        },
        {
          "internalType": "bool",
          "name": "approved",
          "type": "bool"
        }
      ],
      "name": "setApprovalForAll",
      "outputs": [],
      "stateMutability": "nonpayable",
      "type": "function"
    },
    {
      "inputs": [
        {
          "internalType": "bytes4",
          "name": "interfaceId",
          "type": "bytes4"
        }
      ],
      "name": "supportsInterface",
      "outputs": [
        {
          "internalType": "bool",
          "name": "",
          "type": "bool"
        }
      ],
      "stateMutability": "view",
      "type": "function"
    },
    {
      "inputs": [],
      "name": "symbol",
      "outputs": [
        {
          "internalType": "string",
          "name": "",
          "type": "string"
        }
      ],
      "stateMutability": "view",
      "type": "function"
    },
    {
      "inputs": [
        {
          "internalType": "uint256",
          "name": "tokenId",
          "type": "uint256"
        }
      ],
      "name": "tokenURI",
      "outputs": [
        {
          "internalType": "string",
          "name": "",
          "type": "string"
        }
      ],
      "stateMutability": "view",
      "type": "function"
    },
    {
      "inputs": [
        {
          "internalType": "address",
          "name": "from",
          "type": "address"
        },
        {
          "internalType": "address",
          "name": "to",
          "type": "address"
        },
        {
          "internalType": "uint256",
          "name": "tokenId",
          "type": "uint256"
        }
      ],
      "name": "transferFrom",
      "outputs": [],
      "stateMutability": "nonpayable",
      "type": "function"
    },
    {
      "inputs": [
        {
          "internalType": "address",
          "name": "newOwner",
          "type": "address"
        }
      ],
      "name": "transferOwnership",
      "outputs": [],
      "stateMutability": "nonpayable",
      "type": "function"
    }
  ],
  "bytecode": "0x6101406040523480156200001257600080fd5b506040518060400160405280600581526020017f4c415a59320000000000000000000000000000000000000000000000000000008152506040518060400160405280600381526020017f312e3000000000000000000000000000000000000000000000000000000000008152506040518060400160405280600781526020017f4c617a794e4654000000000000000000000000000000000000000000000000008152506040518060400160405280600581526020017f4c415a593200000000000000000000000000000000000000000000000000000081525081600090805190602001906200010392919062000301565b5080600190805190602001906200011c92919062000301565b5050506200013f62000133620001f760201b60201c565b620001ff60201b60201c565b60008280519060200120905060008280519060200120905060007f8b73c3c69bb8fe3d512ecc4cf759cc79239f7b179b0ffacaa9a75d522b39400f90508260e081815250508161010081815250504660a08181525050620001a8818484620002c560201b60201c565b608081815250503073ffffffffffffffffffffffffffffffffffffffff1660c08173ffffffffffffffffffffffffffffffffffffffff16815250508061012081815250505050505050620004ed565b600033905090565b6000600760009054906101000a900473ffffffffffffffffffffffffffffffffffffffff16905081600760006101000a81548173ffffffffffffffffffffffffffffffffffffffff021916908373ffffffffffffffffffffffffffffffffffffffff1602179055508173ffffffffffffffffffffffffffffffffffffffff168173ffffffffffffffffffffffffffffffffffffffff167f8be0079c531659141344cd1fd0a4f28419497f9722a3daafe3b4186f6b6457e060405160405180910390a35050565b60008383834630604051602001620002e29594939291906200042c565b6040516020818303038152906040528051906020012090509392505050565b8280546200030f90620004b8565b90600052602060002090601f0160209004810192826200033357600085556200037f565b82601f106200034e57805160ff19168380011785556200037f565b828001600101855582156200037f579182015b828111156200037e57825182559160200191906001019062000361565b5b5090506200038e919062000392565b5090565b5b80821115620003ad57600081600090555060010162000393565b5090565b6000819050919050565b620003c681620003b1565b82525050565b6000819050919050565b620003e181620003cc565b82525050565b600073ffffffffffffffffffffffffffffffffffffffff82169050919050565b60006200041482620003e7565b9050919050565b620004268162000407565b82525050565b600060a082019050620004436000830188620003bb565b620004526020830187620003bb565b620004616040830186620003bb565b620004706060830185620003d6565b6200047f60808301846200041b565b9695505050505050565b7f4e487b7100000000000000000000000000000000000000000000000000000000600052602260045260246000fd5b60006002820490506001821680620004d157607f821691505b602082108103620004e757620004e662000489565b5b50919050565b60805160a05160c05160e051610100516101205161411d6200053d6000396000611f0301526000611f4501526000611f2401526000611e5901526000611eaf01526000611ed8015261411d6000f3fe6080604052600436106100fe5760003560e01c8063715018a611610095578063aa0781ee11610064578063aa0781ee14610333578063b88d4fde14610363578063c87b56dd1461038c578063e985e9c5146103c9578063f2fde38b14610406576100fe565b8063715018a61461029d5780638da5cb5b146102b457806395d89b41146102df578063a22cb4651461030a576100fe565b806323b872dd116100d157806323b872dd146101d157806342842e0e146101fa5780636352211e1461022357806370a0823114610260576100fe565b806301ffc9a71461010357806306fdde0314610140578063081812fc1461016b578063095ea7b3146101a8575b600080fd5b34801561010f57600080fd5b5061012a6004803603810190610125919061269f565b61042f565b60405161013791906126e7565b60405180910390f35b34801561014c57600080fd5b50610155610511565b604051610162919061279b565b60405180910390f35b34801561017757600080fd5b50610192600480360381019061018d91906127f3565b6105a3565b60405161019f9190612861565b60405180910390f35b3480156101b457600080fd5b506101cf60048036038101906101ca91906128a8565b610628565b005b3480156101dd57600080fd5b506101f860048036038101906101f391906128e8565b61073f565b005b34801561020657600080fd5b50610221600480360381019061021c91906128e8565b61079f565b005b34801561022f57600080fd5b5061024a600480360381019061024591906127f3565b6107bf565b6040516102579190612861565b60405180910390f35b34801561026c57600080fd5b506102876004803603810190610282919061293b565b610870565b6040516102949190612977565b60405180910390f35b3480156102a957600080fd5b506102b2610927565b005b3480156102c057600080fd5b506102c96109af565b6040516102d69190612861565b60405180910390f35b3480156102eb57600080fd5b506102f46109d9565b604051610301919061279b565b60405180910390f35b34801561031657600080fd5b50610331600480360381019061032c91906129be565b610a6b565b005b61034d60048036038101906103489190612a87565b610a81565b60405161035a9190612977565b60405180910390f35b34801561036f57600080fd5b5061038a60048036038101906103859190612c33565b610c5e565b005b34801561039857600080fd5b506103b360048036038101906103ae91906127f3565b610cc0565b6040516103c0919061279b565b60405180910390f35b3480156103d557600080fd5b506103f060048036038101906103eb9190612cb6565b610e11565b6040516103fd91906126e7565b60405180910390f35b34801561041257600080fd5b5061042d6004803603810190610428919061293b565b610ea5565b005b60007f80ac58cd000000000000000000000000000000000000000000000000000000007bffffffffffffffffffffffffffffffffffffffffffffffffffffffff1916827bffffffffffffffffffffffffffffffffffffffffffffffffffffffff191614806104fa57507f5b5e139f000000000000000000000000000000000000000000000000000000007bffffffffffffffffffffffffffffffffffffffffffffffffffffffff1916827bffffffffffffffffffffffffffffffffffffffffffffffffffffffff1916145b8061050a575061050982610f9c565b5b9050919050565b60606000805461052090612d25565b80601f016020809104026020016040519081016040528092919081815260200182805461054c90612d25565b80156105995780601f1061056e57610100808354040283529160200191610599565b820191906000526020600020905b81548152906001019060200180831161057c57829003601f168201915b5050505050905090565b60006105ae82611006565b6105ed576040517f08c379a00000000000000000000000000000000000000000000000000000000081526004016105e490612dc8565b60405180910390fd5b6004600083815260200190815260200160002060009054906101000a900473ffffffffffffffffffffffffffffffffffffffff169050919050565b6000610633826107bf565b90508073ffffffffffffffffffffffffffffffffffffffff168373ffffffffffffffffffffffffffffffffffffffff16036106a3576040517f08c379a000000000000000000000000000000000000000000000000000000000815260040161069a90612e5a565b60405180910390fd5b8073ffffffffffffffffffffffffffffffffffffffff166106c2611072565b73ffffffffffffffffffffffffffffffffffffffff1614806106f157506106f0816106eb611072565b610e11565b5b610730576040517f08c379a000000000000000000000000000000000000000000000000000000000815260040161072790612eec565b60405180910390fd5b61073a838361107a565b505050565b61075061074a611072565b82611133565b61078f576040517f08c379a000000000000000000000000000000000000000000000000000000000815260040161078690612f7e565b60405180910390fd5b61079a838383611211565b505050565b6107ba83838360405180602001604052806000815250610c5e565b505050565b6000806002600084815260200190815260200160002060009054906101000a900473ffffffffffffffffffffffffffffffffffffffff169050600073ffffffffffffffffffffffffffffffffffffffff168173ffffffffffffffffffffffffffffffffffffffff1603610867576040517f08c379a000000000000000000000000000000000000000000000000000000000815260040161085e90613010565b60405180910390fd5b80915050919050565b60008073ffffffffffffffffffffffffffffffffffffffff168273ffffffffffffffffffffffffffffffffffffffff16036108e0576040517f08c379a00000000000000000000000000000000000000000000000000000000081526004016108d7906130a2565b60405180910390fd5b600360008373ffffffffffffffffffffffffffffffffffffffff1673ffffffffffffffffffffffffffffffffffffffff168152602001908152602001600020549050919050565b61092f611072565b73ffffffffffffffffffffffffffffffffffffffff1661094d6109af565b73ffffffffffffffffffffffffffffffffffffffff16146109a3576040517f08c379a000000000000000000000000000000000000000000000000000000000815260040161099a9061310e565b60405180910390fd5b6109ad6000611477565b565b6000600760009054906101000a900473ffffffffffffffffffffffffffffffffffffffff16905090565b6060600180546109e890612d25565b80601f0160208091040260200160405190810160405280929190818152602001828054610a1490612d25565b8015610a615780601f10610a3657610100808354040283529160200191610a61565b820191906000526020600020905b815481529060010190602001808311610a4457829003601f168201915b5050505050905090565b610a7d610a76611072565b838361153d565b5050565b6000610a9e846060016020810190610a99919061293b565b6116a9565b83602001353414610ae4576040517f08c379a0000000000000000000000000000000000000000000000000000000008152600401610adb906131a0565b60405180910390fd5b6000610b3c610af286611742565b85858080601f016020809104026020016040519081016040528093929190818152602001838380828437600081840152601f19601f820116905080830192505050505050506117e6565b9050846060016020810190610b51919061293b565b73ffffffffffffffffffffffffffffffffffffffff168173ffffffffffffffffffffffffffffffffffffffff1614610bbe576040517f08c379a0000000000000000000000000000000000000000000000000000000008152600401610bb59061320c565b60405180910390fd5b610bd3610bc9611072565b86600001356117ff565b610c338560000135868060400190610beb919061323b565b8080601f016020809104026020016040519081016040528093929190818152602001838380828437600081840152601f19601f8201169050808301925050505050505061181d565b610c4f856060016020810190610c49919061293b565b34611891565b84600001359150509392505050565b610c6f610c69611072565b83611133565b610cae576040517f08c379a0000000000000000000000000000000000000000000000000000000008152600401610ca590612f7e565b60405180910390fd5b610cba84848484611985565b50505050565b6060610ccb82611006565b610d0a576040517f08c379a0000000000000000000000000000000000000000000000000000000008152600401610d0190613310565b60405180910390fd5b6000600660008481526020019081526020016000208054610d2a90612d25565b80601f0160208091040260200160405190810160405280929190818152602001828054610d5690612d25565b8015610da35780601f10610d7857610100808354040283529160200191610da3565b820191906000526020600020905b815481529060010190602001808311610d8657829003601f168201915b505050505090506000610db46119e1565b90506000815103610dc9578192505050610e0c565b600082511115610dfe578082604051602001610de692919061336c565b60405160208183030381529060405292505050610e0c565b610e07846119f8565b925050505b919050565b6000600560008473ffffffffffffffffffffffffffffffffffffffff1673ffffffffffffffffffffffffffffffffffffffff16815260200190815260200160002060008373ffffffffffffffffffffffffffffffffffffffff1673ffffffffffffffffffffffffffffffffffffffff16815260200190815260200160002060009054906101000a900460ff16905092915050565b610ead611072565b73ffffffffffffffffffffffffffffffffffffffff16610ecb6109af565b73ffffffffffffffffffffffffffffffffffffffff1614610f21576040517f08c379a0000000000000000000000000000000000000000000000000000000008152600401610f189061310e565b60405180910390fd5b600073ffffffffffffffffffffffffffffffffffffffff168173ffffffffffffffffffffffffffffffffffffffff1603610f90576040517f08c379a0000000000000000000000000000000000000000000000000000000008152600401610f8790613402565b60405180910390fd5b610f9981611477565b50565b60007f01ffc9a7000000000000000000000000000000000000000000000000000000007bffffffffffffffffffffffffffffffffffffffffffffffffffffffff1916827bffffffffffffffffffffffffffffffffffffffffffffffffffffffff1916149050919050565b60008073ffffffffffffffffffffffffffffffffffffffff166002600084815260200190815260200160002060009054906101000a900473ffffffffffffffffffffffffffffffffffffffff1673ffffffffffffffffffffffffffffffffffffffff1614159050919050565b600033905090565b816004600083815260200190815260200160002060006101000a81548173ffffffffffffffffffffffffffffffffffffffff021916908373ffffffffffffffffffffffffffffffffffffffff160217905550808273ffffffffffffffffffffffffffffffffffffffff166110ed836107bf565b73ffffffffffffffffffffffffffffffffffffffff167f8c5be1e5ebec7d5bd14f71427d1e84f3dd0314c0f7b2291e5b200ac8c7c3b92560405160405180910390a45050565b600061113e82611006565b61117d576040517f08c379a000000000000000000000000000000000000000000000000000000000815260040161117490613494565b60405180910390fd5b6000611188836107bf565b90508073ffffffffffffffffffffffffffffffffffffffff168473ffffffffffffffffffffffffffffffffffffffff1614806111ca57506111c98185610e11565b5b8061120857508373ffffffffffffffffffffffffffffffffffffffff166111f0846105a3565b73ffffffffffffffffffffffffffffffffffffffff16145b91505092915050565b8273ffffffffffffffffffffffffffffffffffffffff16611231826107bf565b73ffffffffffffffffffffffffffffffffffffffff1614611287576040517f08c379a000000000000000000000000000000000000000000000000000000000815260040161127e90613526565b60405180910390fd5b600073ffffffffffffffffffffffffffffffffffffffff168273ffffffffffffffffffffffffffffffffffffffff16036112f6576040517f08c379a00000000000000000000000000000000000000000000000000000000081526004016112ed906135b8565b60405180910390fd5b611301838383611a9f565b61130c60008261107a565b6001600360008573ffffffffffffffffffffffffffffffffffffffff1673ffffffffffffffffffffffffffffffffffffffff168152602001908152602001600020600082825461135c9190613607565b925050819055506001600360008473ffffffffffffffffffffffffffffffffffffffff1673ffffffffffffffffffffffffffffffffffffffff16815260200190815260200160002060008282546113b3919061363b565b92505081905550816002600083815260200190815260200160002060006101000a81548173ffffffffffffffffffffffffffffffffffffffff021916908373ffffffffffffffffffffffffffffffffffffffff160217905550808273ffffffffffffffffffffffffffffffffffffffff168473ffffffffffffffffffffffffffffffffffffffff167fddf252ad1be2c89b69c2b068fc378daa952ba7f163c4a11628f55a4df523b3ef60405160405180910390a4611472838383611aa4565b505050565b6000600760009054906101000a900473ffffffffffffffffffffffffffffffffffffffff16905081600760006101000a81548173ffffffffffffffffffffffffffffffffffffffff021916908373ffffffffffffffffffffffffffffffffffffffff1602179055508173ffffffffffffffffffffffffffffffffffffffff168173ffffffffffffffffffffffffffffffffffffffff167f8be0079c531659141344cd1fd0a4f28419497f9722a3daafe3b4186f6b6457e060405160405180910390a35050565b8173ffffffffffffffffffffffffffffffffffffffff168373ffffffffffffffffffffffffffffffffffffffff16036115ab576040517f08c379a00000000000000000000000000000000000000000000000000000000081526004016115a2906136dd565b60405180910390fd5b80600560008573ffffffffffffffffffffffffffffffffffffffff1673ffffffffffffffffffffffffffffffffffffffff16815260200190815260200160002060008473ffffffffffffffffffffffffffffffffffffffff1673ffffffffffffffffffffffffffffffffffffffff16815260200190815260200160002060006101000a81548160ff0219169083151502179055508173ffffffffffffffffffffffffffffffffffffffff168373ffffffffffffffffffffffffffffffffffffffff167f17307eab39ab6107e8899845ad3d59bd9653f200f220920489ca2b5937696c318360405161169c91906126e7565b60405180910390a3505050565b61173f816040516024016116bd9190612861565b6040516020818303038152906040527f2c2ecbc2000000000000000000000000000000000000000000000000000000007bffffffffffffffffffffffffffffffffffffffffffffffffffffffff19166020820180517bffffffffffffffffffffffffffffffffffffffffffffffffffffffff8381831617835250505050611aa9565b50565b6000806117db7f96977d0d2bc507a2b4441497633b945a207a10232bf944b73dcc2eef978d8ffc84600001358560200135868060400190611783919061323b565b60405161179192919061372d565b60405180910390208760600160208101906117ac919061293b565b6040516020016117c095949392919061375f565b60405160208183030381529060405280519060200120611ad2565b905080915050919050565b6000806117f38484611aec565b90508091505092915050565b611819828260405180602001604052806000815250611b13565b5050565b61182682611006565b611865576040517f08c379a000000000000000000000000000000000000000000000000000000000815260040161185c90613824565b60405180910390fd5b8060066000848152602001908152602001600020908051906020019061188c929190612590565b505050565b804710156118d4576040517f08c379a00000000000000000000000000000000000000000000000000000000081526004016118cb90613890565b60405180910390fd5b60008273ffffffffffffffffffffffffffffffffffffffff16826040516118fa906138d6565b60006040518083038185875af1925050503d8060008114611937576040519150601f19603f3d011682016040523d82523d6000602084013e61193c565b606091505b5050905080611980576040517f08c379a00000000000000000000000000000000000000000000000000000000081526004016119779061395d565b60405180910390fd5b505050565b611990848484611211565b61199c84848484611b6e565b6119db576040517f08c379a00000000000000000000000000000000000000000000000000000000081526004016119d2906139ef565b60405180910390fd5b50505050565b606060405180602001604052806000815250905090565b6060611a0382611006565b611a42576040517f08c379a0000000000000000000000000000000000000000000000000000000008152600401611a3990613a81565b60405180910390fd5b6000611a4c6119e1565b90506000815111611a6c5760405180602001604052806000815250611a97565b80611a7684611cf5565b604051602001611a8792919061336c565b6040516020818303038152906040525b915050919050565b505050565b505050565b60008151905060006a636f6e736f6c652e6c6f679050602083016000808483855afa5050505050565b6000611ae5611adf611e55565b83611f6f565b9050919050565b6000806000611afb8585611fa2565b91509150611b0881612023565b819250505092915050565b611b1d83836121ef565b611b2a6000848484611b6e565b611b69576040517f08c379a0000000000000000000000000000000000000000000000000000000008152600401611b60906139ef565b60405180910390fd5b505050565b6000611b8f8473ffffffffffffffffffffffffffffffffffffffff166123c8565b15611ce8578373ffffffffffffffffffffffffffffffffffffffff1663150b7a02611bb8611072565b8786866040518563ffffffff1660e01b8152600401611bda9493929190613af6565b6020604051808303816000875af1925050508015611c1657506040513d601f19601f82011682018060405250810190611c139190613b57565b60015b611c98573d8060008114611c46576040519150601f19603f3d011682016040523d82523d6000602084013e611c4b565b606091505b506000815103611c90576040517f08c379a0000000000000000000000000000000000000000000000000000000008152600401611c87906139ef565b60405180910390fd5b805181602001fd5b63150b7a0260e01b7bffffffffffffffffffffffffffffffffffffffffffffffffffffffff1916817bffffffffffffffffffffffffffffffffffffffffffffffffffffffff191614915050611ced565b600190505b949350505050565b606060008203611d3c576040518060400160405280600181526020017f30000000000000000000000000000000000000000000000000000000000000008152509050611e50565b600082905060005b60008214611d6e578080611d5790613b84565b915050600a82611d679190613bfb565b9150611d44565b60008167ffffffffffffffff811115611d8a57611d89612b08565b5b6040519080825280601f01601f191660200182016040528015611dbc5781602001600182028036833780820191505090505b5090505b60008514611e4957600182611dd59190613607565b9150600a85611de49190613c2c565b6030611df0919061363b565b60f81b818381518110611e0657611e05613c5d565b5b60200101907effffffffffffffffffffffffffffffffffffffffffffffffffffffffffffff1916908160001a905350600a85611e429190613bfb565b9450611dc0565b8093505050505b919050565b60007f000000000000000000000000000000000000000000000000000000000000000073ffffffffffffffffffffffffffffffffffffffff163073ffffffffffffffffffffffffffffffffffffffff16148015611ed157507f000000000000000000000000000000000000000000000000000000000000000046145b15611efe577f00000000000000000000000000000000000000000000000000000000000000009050611f6c565b611f697f00000000000000000000000000000000000000000000000000000000000000007f00000000000000000000000000000000000000000000000000000000000000007f00000000000000000000000000000000000000000000000000000000000000006123eb565b90505b90565b60008282604051602001611f84929190613cf9565b60405160208183030381529060405280519060200120905092915050565b6000806041835103611fe35760008060006020860151925060408601519150606086015160001a9050611fd787828585612425565b9450945050505061201c565b6040835103612013576000806020850151915060408501519050612008868383612531565b93509350505061201c565b60006002915091505b9250929050565b6000600481111561203757612036613d30565b5b81600481111561204a57612049613d30565b5b03156121ec576001600481111561206457612063613d30565b5b81600481111561207757612076613d30565b5b036120b7576040517f08c379a00000000000000000000000000000000000000000000000000000000081526004016120ae90613dab565b60405180910390fd5b600260048111156120cb576120ca613d30565b5b8160048111156120de576120dd613d30565b5b0361211e576040517f08c379a000000000000000000000000000000000000000000000000000000000815260040161211590613e17565b60405180910390fd5b6003600481111561213257612131613d30565b5b81600481111561214557612144613d30565b5b03612185576040517f08c379a000000000000000000000000000000000000000000000000000000000815260040161217c90613ea9565b60405180910390fd5b60048081111561219857612197613d30565b5b8160048111156121ab576121aa613d30565b5b036121eb576040517f08c379a00000000000000000000000000000000000000000000000000000000081526004016121e290613f3b565b60405180910390fd5b5b50565b600073ffffffffffffffffffffffffffffffffffffffff168273ffffffffffffffffffffffffffffffffffffffff160361225e576040517f08c379a000000000000000000000000000000000000000000000000000000000815260040161225590613fa7565b60405180910390fd5b61226781611006565b156122a7576040517f08c379a000000000000000000000000000000000000000000000000000000000815260040161229e90614013565b60405180910390fd5b6122b360008383611a9f565b6001600360008473ffffffffffffffffffffffffffffffffffffffff1673ffffffffffffffffffffffffffffffffffffffff1681526020019081526020016000206000828254612303919061363b565b92505081905550816002600083815260200190815260200160002060006101000a81548173ffffffffffffffffffffffffffffffffffffffff021916908373ffffffffffffffffffffffffffffffffffffffff160217905550808273ffffffffffffffffffffffffffffffffffffffff16600073ffffffffffffffffffffffffffffffffffffffff167fddf252ad1be2c89b69c2b068fc378daa952ba7f163c4a11628f55a4df523b3ef60405160405180910390a46123c460008383611aa4565b5050565b6000808273ffffffffffffffffffffffffffffffffffffffff163b119050919050565b60008383834630604051602001612406959493929190614033565b6040516020818303038152906040528051906020012090509392505050565b6000807f7fffffffffffffffffffffffffffffff5d576e7357a4501ddfe92f46681b20a08360001c1115612460576000600391509150612528565b601b8560ff16141580156124785750601c8560ff1614155b1561248a576000600491509150612528565b6000600187878787604051600081526020016040526040516124af94939291906140a2565b6020604051602081039080840390855afa1580156124d1573d6000803e3d6000fd5b505050602060405103519050600073ffffffffffffffffffffffffffffffffffffffff168173ffffffffffffffffffffffffffffffffffffffff160361251f57600060019250925050612528565b80600092509250505b94509492505050565b60008060007f7fffffffffffffffffffffffffffffffffffffffffffffffffffffffffffffff60001b841690506000601b60ff8660001c901c612574919061363b565b905061258287828885612425565b935093505050935093915050565b82805461259c90612d25565b90600052602060002090601f0160209004810192826125be5760008555612605565b82601f106125d757805160ff1916838001178555612605565b82800160010185558215612605579182015b828111156126045782518255916020019190600101906125e9565b5b5090506126129190612616565b5090565b5b8082111561262f576000816000905550600101612617565b5090565b6000604051905090565b600080fd5b600080fd5b60007fffffffff0000000000000000000000000000000000000000000000000000000082169050919050565b61267c81612647565b811461268757600080fd5b50565b60008135905061269981612673565b92915050565b6000602082840312156126b5576126b461263d565b5b60006126c38482850161268a565b91505092915050565b60008115159050919050565b6126e1816126cc565b82525050565b60006020820190506126fc60008301846126d8565b92915050565b600081519050919050565b600082825260208201905092915050565b60005b8381101561273c578082015181840152602081019050612721565b8381111561274b576000848401525b50505050565b6000601f19601f8301169050919050565b600061276d82612702565b612777818561270d565b935061278781856020860161271e565b61279081612751565b840191505092915050565b600060208201905081810360008301526127b58184612762565b905092915050565b6000819050919050565b6127d0816127bd565b81146127db57600080fd5b50565b6000813590506127ed816127c7565b92915050565b6000602082840312156128095761280861263d565b5b6000612817848285016127de565b91505092915050565b600073ffffffffffffffffffffffffffffffffffffffff82169050919050565b600061284b82612820565b9050919050565b61285b81612840565b82525050565b60006020820190506128766000830184612852565b92915050565b61288581612840565b811461289057600080fd5b50565b6000813590506128a28161287c565b92915050565b600080604083850312156128bf576128be61263d565b5b60006128cd85828601612893565b92505060206128de858286016127de565b9150509250929050565b6000806000606084860312156129015761290061263d565b5b600061290f86828701612893565b935050602061292086828701612893565b9250506040612931868287016127de565b9150509250925092565b6000602082840312156129515761295061263d565b5b600061295f84828501612893565b91505092915050565b612971816127bd565b82525050565b600060208201905061298c6000830184612968565b92915050565b61299b816126cc565b81146129a657600080fd5b50565b6000813590506129b881612992565b92915050565b600080604083850312156129d5576129d461263d565b5b60006129e385828601612893565b92505060206129f4858286016129a9565b9150509250929050565b600080fd5b600060808284031215612a1957612a186129fe565b5b81905092915050565b600080fd5b600080fd5b600080fd5b60008083601f840112612a4757612a46612a22565b5b8235905067ffffffffffffffff811115612a6457612a63612a27565b5b602083019150836001820283011115612a8057612a7f612a2c565b5b9250929050565b600080600060408486031215612aa057612a9f61263d565b5b600084013567ffffffffffffffff811115612abe57612abd612642565b5b612aca86828701612a03565b935050602084013567ffffffffffffffff811115612aeb57612aea612642565b5b612af786828701612a31565b92509250509250925092565b600080fd5b7f4e487b7100000000000000000000000000000000000000000000000000000000600052604160045260246000fd5b612b4082612751565b810181811067ffffffffffffffff82111715612b5f57612b5e612b08565b5b80604052505050565b6000612b72612633565b9050612b7e8282612b37565b919050565b600067ffffffffffffffff821115612b9e57612b9d612b08565b5b612ba782612751565b9050602081019050919050565b82818337600083830152505050565b6000612bd6612bd184612b83565b612b68565b905082815260208101848484011115612bf257612bf1612b03565b5b612bfd848285612bb4565b509392505050565b600082601f830112612c1a57612c19612a22565b5b8135612c2a848260208601612bc3565b91505092915050565b60008060008060808587031215612c4d57612c4c61263d565b5b6000612c5b87828801612893565b9450506020612c6c87828801612893565b9350506040612c7d878288016127de565b925050606085013567ffffffffffffffff811115612c9e57612c9d612642565b5b612caa87828801612c05565b91505092959194509250565b60008060408385031215612ccd57612ccc61263d565b5b6000612cdb85828601612893565b9250506020612cec85828601612893565b9150509250929050565b7f4e487b7100000000000000000000000000000000000000000000000000000000600052602260045260246000fd5b60006002820490506001821680612d3d57607f821691505b602082108103612d5057612d4f612cf6565b5b50919050565b7f4552433732313a20617070726f76656420717565727920666f72206e6f6e657860008201527f697374656e7420746f6b656e0000000000000000000000000000000000000000602082015250565b6000612db2602c8361270d565b9150612dbd82612d56565b604082019050919050565b60006020820190508181036000830152612de181612da5565b9050919050565b7f4552433732313a20617070726f76616c20746f2063757272656e74206f776e6560008201527f7200000000000000000000000000000000000000000000000000000000000000602082015250565b6000612e4460218361270d565b9150612e4f82612de8565b604082019050919050565b60006020820190508181036000830152612e7381612e37565b9050919050565b7f4552433732313a20617070726f76652063616c6c6572206973206e6f74206f7760008201527f6e6572206e6f7220617070726f76656420666f7220616c6c0000000000000000602082015250565b6000612ed660388361270d565b9150612ee182612e7a565b604082019050919050565b60006020820190508181036000830152612f0581612ec9565b9050919050565b7f4552433732313a207472616e736665722063616c6c6572206973206e6f74206f60008201527f776e6572206e6f7220617070726f766564000000000000000000000000000000602082015250565b6000612f6860318361270d565b9150612f7382612f0c565b604082019050919050565b60006020820190508181036000830152612f9781612f5b565b9050919050565b7f4552433732313a206f776e657220717565727920666f72206e6f6e657869737460008201527f656e7420746f6b656e0000000000000000000000000000000000000000000000602082015250565b6000612ffa60298361270d565b915061300582612f9e565b604082019050919050565b6000602082019050818103600083015261302981612fed565b9050919050565b7f4552433732313a2062616c616e636520717565727920666f7220746865207a6560008201527f726f206164647265737300000000000000000000000000000000000000000000602082015250565b600061308c602a8361270d565b915061309782613030565b604082019050919050565b600060208201905081810360008301526130bb8161307f565b9050919050565b7f4f776e61626c653a2063616c6c6572206973206e6f7420746865206f776e6572600082015250565b60006130f860208361270d565b9150613103826130c2565b602082019050919050565b60006020820190508181036000830152613127816130eb565b9050919050565b7f53696d6f6e4465764e46543a204d6573736167652076616c756520213d20707260008201527f6963650000000000000000000000000000000000000000000000000000000000602082015250565b600061318a60238361270d565b91506131958261312e565b604082019050919050565b600060208201905081810360008301526131b98161317d565b9050919050565b7f696e76616c6964207369676e6174757265000000000000000000000000000000600082015250565b60006131f660118361270d565b9150613201826131c0565b602082019050919050565b60006020820190508181036000830152613225816131e9565b9050919050565b600080fd5b600080fd5b600080fd5b600080833560016020038436030381126132585761325761322c565b5b80840192508235915067ffffffffffffffff82111561327a57613279613231565b5b60208301925060018202360383131561329657613295613236565b5b509250929050565b7f45524337323155524953746f726167653a2055524920717565727920666f722060008201527f6e6f6e6578697374656e7420746f6b656e000000000000000000000000000000602082015250565b60006132fa60318361270d565b91506133058261329e565b604082019050919050565b60006020820190508181036000830152613329816132ed565b9050919050565b600081905092915050565b600061334682612702565b6133508185613330565b935061336081856020860161271e565b80840191505092915050565b6000613378828561333b565b9150613384828461333b565b91508190509392505050565b7f4f776e61626c653a206e6577206f776e657220697320746865207a65726f206160008201527f6464726573730000000000000000000000000000000000000000000000000000602082015250565b60006133ec60268361270d565b91506133f782613390565b604082019050919050565b6000602082019050818103600083015261341b816133df565b9050919050565b7f4552433732313a206f70657261746f7220717565727920666f72206e6f6e657860008201527f697374656e7420746f6b656e0000000000000000000000000000000000000000602082015250565b600061347e602c8361270d565b915061348982613422565b604082019050919050565b600060208201905081810360008301526134ad81613471565b9050919050565b7f4552433732313a207472616e736665722066726f6d20696e636f72726563742060008201527f6f776e6572000000000000000000000000000000000000000000000000000000602082015250565b600061351060258361270d565b915061351b826134b4565b604082019050919050565b6000602082019050818103600083015261353f81613503565b9050919050565b7f4552433732313a207472616e7366657220746f20746865207a65726f2061646460008201527f7265737300000000000000000000000000000000000000000000000000000000602082015250565b60006135a260248361270d565b91506135ad82613546565b604082019050919050565b600060208201905081810360008301526135d181613595565b9050919050565b7f4e487b7100000000000000000000000000000000000000000000000000000000600052601160045260246000fd5b6000613612826127bd565b915061361d836127bd565b9250828210156136305761362f6135d8565b5b828203905092915050565b6000613646826127bd565b9150613651836127bd565b9250827fffffffffffffffffffffffffffffffffffffffffffffffffffffffffffffffff03821115613686576136856135d8565b5b828201905092915050565b7f4552433732313a20617070726f766520746f2063616c6c657200000000000000600082015250565b60006136c760198361270d565b91506136d282613691565b602082019050919050565b600060208201905081810360008301526136f6816136ba565b9050919050565b600081905092915050565b600061371483856136fd565b9350613721838584612bb4565b82840190509392505050565b600061373a828486613708565b91508190509392505050565b6000819050919050565b61375981613746565b82525050565b600060a0820190506137746000830188613750565b6137816020830187612968565b61378e6040830186612968565b61379b6060830185613750565b6137a86080830184612852565b9695505050505050565b7f45524337323155524953746f726167653a2055524920736574206f66206e6f6e60008201527f6578697374656e7420746f6b656e000000000000000000000000000000000000602082015250565b600061380e602e8361270d565b9150613819826137b2565b604082019050919050565b6000602082019050818103600083015261383d81613801565b9050919050565b7f416464726573733a20696e73756666696369656e742062616c616e6365000000600082015250565b600061387a601d8361270d565b915061388582613844565b602082019050919050565b600060208201905081810360008301526138a98161386d565b9050919050565b50565b60006138c06000836136fd565b91506138cb826138b0565b600082019050919050565b60006138e1826138b3565b9150819050919050565b7f416464726573733a20756e61626c6520746f2073656e642076616c75652c207260008201527f6563697069656e74206d61792068617665207265766572746564000000000000602082015250565b6000613947603a8361270d565b9150613952826138eb565b604082019050919050565b600060208201905081810360008301526139768161393a565b9050919050565b7f4552433732313a207472616e7366657220746f206e6f6e20455243373231526560008201527f63656976657220696d706c656d656e7465720000000000000000000000000000602082015250565b60006139d960328361270d565b91506139e48261397d565b604082019050919050565b60006020820190508181036000830152613a08816139cc565b9050919050565b7f4552433732314d657461646174613a2055524920717565727920666f72206e6f60008201527f6e6578697374656e7420746f6b656e0000000000000000000000000000000000602082015250565b6000613a6b602f8361270d565b9150613a7682613a0f565b604082019050919050565b60006020820190508181036000830152613a9a81613a5e565b9050919050565b600081519050919050565b600082825260208201905092915050565b6000613ac882613aa1565b613ad28185613aac565b9350613ae281856020860161271e565b613aeb81612751565b840191505092915050565b6000608082019050613b0b6000830187612852565b613b186020830186612852565b613b256040830185612968565b8181036060830152613b378184613abd565b905095945050505050565b600081519050613b5181612673565b92915050565b600060208284031215613b6d57613b6c61263d565b5b6000613b7b84828501613b42565b91505092915050565b6000613b8f826127bd565b91507fffffffffffffffffffffffffffffffffffffffffffffffffffffffffffffffff8203613bc157613bc06135d8565b5b600182019050919050565b7f4e487b7100000000000000000000000000000000000000000000000000000000600052601260045260246000fd5b6000613c06826127bd565b9150613c11836127bd565b925082613c2157613c20613bcc565b5b828204905092915050565b6000613c37826127bd565b9150613c42836127bd565b925082613c5257613c51613bcc565b5b828206905092915050565b7f4e487b7100000000000000000000000000000000000000000000000000000000600052603260045260246000fd5b7f1901000000000000000000000000000000000000000000000000000000000000600082015250565b6000613cc2600283613330565b9150613ccd82613c8c565b600282019050919050565b6000819050919050565b613cf3613cee82613746565b613cd8565b82525050565b6000613d0482613cb5565b9150613d108285613ce2565b602082019150613d208284613ce2565b6020820191508190509392505050565b7f4e487b7100000000000000000000000000000000000000000000000000000000600052602160045260246000fd5b7f45434453413a20696e76616c6964207369676e61747572650000000000000000600082015250565b6000613d9560188361270d565b9150613da082613d5f565b602082019050919050565b60006020820190508181036000830152613dc481613d88565b9050919050565b7f45434453413a20696e76616c6964207369676e6174757265206c656e67746800600082015250565b6000613e01601f8361270d565b9150613e0c82613dcb565b602082019050919050565b60006020820190508181036000830152613e3081613df4565b9050919050565b7f45434453413a20696e76616c6964207369676e6174757265202773272076616c60008201527f7565000000000000000000000000000000000000000000000000000000000000602082015250565b6000613e9360228361270d565b9150613e9e82613e37565b604082019050919050565b60006020820190508181036000830152613ec281613e86565b9050919050565b7f45434453413a20696e76616c6964207369676e6174757265202776272076616c60008201527f7565000000000000000000000000000000000000000000000000000000000000602082015250565b6000613f2560228361270d565b9150613f3082613ec9565b604082019050919050565b60006020820190508181036000830152613f5481613f18565b9050919050565b7f4552433732313a206d696e7420746f20746865207a65726f2061646472657373600082015250565b6000613f9160208361270d565b9150613f9c82613f5b565b602082019050919050565b60006020820190508181036000830152613fc081613f84565b9050919050565b7f4552433732313a20746f6b656e20616c7265616479206d696e74656400000000600082015250565b6000613ffd601c8361270d565b915061400882613fc7565b602082019050919050565b6000602082019050818103600083015261402c81613ff0565b9050919050565b600060a0820190506140486000830188613750565b6140556020830187613750565b6140626040830186613750565b61406f6060830185612968565b61407c6080830184612852565b9695505050505050565b600060ff82169050919050565b61409c81614086565b82525050565b60006080820190506140b76000830187613750565b6140c46020830186614093565b6140d16040830185613750565b6140de6060830184613750565b9594505050505056fea26469706673582212203b4037a7852bcd2cf3b1845fa773e66a6b12928bd0ac39d40da609d853cd217d64736f6c634300080e0033",
  "linkReferences": {},
  "deployedLinkReferences": {}
}