{
  "_format": "hh-sol-artifact-1",
  "contractName": "Marketplace",
  "sourceName": "src/backend/contracts/Marketplace.sol",
  "abi": [
    {
      "inputs": [
        {
          "internalType": "uint256",
          "name": "_feePercent",
          "type": "uint256"
        }
      ],
      "stateMutability": "nonpayable",
      "type": "constructor"
    },
    {
      "anonymous": false,
      "inputs": [
        {
          "indexed": false,
          "internalType": "uint256",
          "name": "itemId",
          "type": "uint256"
        },
        {
          "indexed": true,
          "internalType": "string",
          "name": "category",
          "type": "string"
        },
        {
          "indexed": false,
          "internalType": "uint256",
          "name": "tokenId",
          "type": "uint256"
        },
        {
          "indexed": false,
          "internalType": "uint256",
          "name": "price",
          "type": "uint256"
        },
        {
          "indexed": true,
          "internalType": "address",
          "name": "creator",
          "type": "address"
        },
        {
          "indexed": true,
          "internalType": "address",
          "name": "buyer",
          "type": "address"
        }
      ],
      "name": "Bought",
      "type": "event"
    },
    {
      "inputs": [],
      "name": "feeAccount",
      "outputs": [
        {
          "internalType": "address payable",
          "name": "",
          "type": "address"
        }
      ],
      "stateMutability": "view",
      "type": "function"
    },
    {
      "inputs": [],
      "name": "feePercent",
      "outputs": [
        {
          "internalType": "uint256",
          "name": "",
          "type": "uint256"
        }
      ],
      "stateMutability": "view",
      "type": "function"
    },
    {
      "inputs": [
        {
          "internalType": "uint256",
          "name": "_itemId",
          "type": "uint256"
        }
      ],
      "name": "getTotalPrice",
      "outputs": [
        {
          "internalType": "uint256",
          "name": "",
          "type": "uint256"
        }
      ],
      "stateMutability": "view",
      "type": "function"
    },
    {
      "inputs": [],
      "name": "itemCount",
      "outputs": [
        {
          "internalType": "uint256",
          "name": "",
          "type": "uint256"
        }
      ],
      "stateMutability": "view",
      "type": "function"
    },
    {
      "inputs": [
        {
          "internalType": "uint256",
          "name": "",
          "type": "uint256"
        }
      ],
      "name": "items",
      "outputs": [
        {
          "internalType": "uint256",
          "name": "itemId",
          "type": "uint256"
        },
        {
          "internalType": "address",
          "name": "nft",
          "type": "address"
        },
        {
          "internalType": "uint256",
          "name": "tokenId",
          "type": "uint256"
        },
        {
          "internalType": "uint256",
          "name": "price",
          "type": "uint256"
        },
        {
          "internalType": "address payable",
          "name": "buyer",
          "type": "address"
        },
        {
          "internalType": "bool",
          "name": "sold",
          "type": "bool"
        },
        {
          "internalType": "string",
          "name": "category",
          "type": "string"
        }
      ],
      "stateMutability": "view",
      "type": "function"
    },
    {
      "inputs": [
        {
          "components": [
            {
              "internalType": "uint256",
              "name": "tokenID",
              "type": "uint256"
            },
            {
              "internalType": "uint256",
              "name": "price",
              "type": "uint256"
            },
            {
              "internalType": "string",
              "name": "uri",
              "type": "string"
            },
            {
              "internalType": "address",
              "name": "creator",
              "type": "address"
            }
          ],
          "internalType": "struct Marketplace.SignedNFTData",
          "name": "nft",
          "type": "tuple"
        },
        {
          "internalType": "bytes",
          "name": "signature",
          "type": "bytes"
        },
        {
          "internalType": "address",
          "name": "nftContract",
          "type": "address"
        }
      ],
      "name": "lazyMintNFT",
      "outputs": [
        {
          "internalType": "uint256",
          "name": "",
          "type": "uint256"
        }
      ],
      "stateMutability": "payable",
      "type": "function"
    }
  ],
  "bytecode": "0x6101806040523480156200001257600080fd5b50604051620021393803806200213983398181016040528101906200003891906200021f565b6040518060400160405280601081526020017f4c617a79204d61726b6574706c616365000000000000000000000000000000008152506040518060400160405280600381526020017f312e300000000000000000000000000000000000000000000000000000000000815250600160008190555060008280519060200120905060008280519060200120905060007f8b73c3c69bb8fe3d512ecc4cf759cc79239f7b179b0ffacaa9a75d522b39400f90508260e081815250508161010081815250504660a0818152505062000115818484620001a360201b60201c565b608081815250503073ffffffffffffffffffffffffffffffffffffffff1660c08173ffffffffffffffffffffffffffffffffffffffff168152505080610120818152505050505050503373ffffffffffffffffffffffffffffffffffffffff166101408173ffffffffffffffffffffffffffffffffffffffff1681525050806101608181525050506200031f565b60008383834630604051602001620001c0959493929190620002c2565b6040516020818303038152906040528051906020012090509392505050565b600080fd5b6000819050919050565b620001f981620001e4565b81146200020557600080fd5b50565b6000815190506200021981620001ee565b92915050565b600060208284031215620002385762000237620001df565b5b6000620002488482850162000208565b91505092915050565b6000819050919050565b620002668162000251565b82525050565b6200027781620001e4565b82525050565b600073ffffffffffffffffffffffffffffffffffffffff82169050919050565b6000620002aa826200027d565b9050919050565b620002bc816200029d565b82525050565b600060a082019050620002d960008301886200025b565b620002e860208301876200025b565b620002f760408301866200025b565b6200030660608301856200026c565b620003156080830184620002b1565b9695505050505050565b60805160a05160c05160e05161010051610120516101405161016051611dad6200038c600039600081816101b701526107090152600061018d01526000610ac801526000610b0a01526000610ae901526000610a1e01526000610a7401526000610a9d0152611dad6000f3fe6080604052600436106100555760003560e01c806365e17c9d1461005a5780636bfb0d01146100855780637fd6f15c146100b0578063bfb231d2146100db578063c6fb7fdc1461011e578063ca7dd3751461014e575b600080fd5b34801561006657600080fd5b5061006f61018b565b60405161007c919061103d565b60405180910390f35b34801561009157600080fd5b5061009a6101af565b6040516100a79190611071565b60405180910390f35b3480156100bc57600080fd5b506100c56101b5565b6040516100d29190611071565b60405180910390f35b3480156100e757600080fd5b5061010260048036038101906100fd91906110c2565b6101d9565b60405161011597969594939291906111c4565b60405180910390f35b610138600480360381019061013391906112ef565b6102f0565b6040516101459190611071565b60405180910390f35b34801561015a57600080fd5b50610175600480360381019061017091906110c2565b610703565b6040516101829190611071565b60405180910390f35b7f000000000000000000000000000000000000000000000000000000000000000081565b60015481565b7f000000000000000000000000000000000000000000000000000000000000000081565b60026020528060005260406000206000915090508060000154908060010160009054906101000a900473ffffffffffffffffffffffffffffffffffffffff16908060020154908060030154908060040160009054906101000a900473ffffffffffffffffffffffffffffffffffffffff16908060040160149054906101000a900460ff169080600501805461026d906113ae565b80601f0160208091040260200160405190810160405280929190818152602001828054610299906113ae565b80156102e65780601f106102bb576101008083540402835291602001916102e6565b820191906000526020600020905b8154815290600101906020018083116102c957829003601f168201915b5050505050905087565b600061030d85606001602081019061030891906113df565b610766565b84602001353414610353576040517f08c379a000000000000000000000000000000000000000000000000000000000815260040161034a9061147e565b60405180910390fd5b60006103ab610361876107ff565b86868080601f016020809104026020016040519081016040528093929190818152602001838380828437600081840152601f19601f820116905080830192505050505050506108a3565b90508560600160208101906103c091906113df565b73ffffffffffffffffffffffffffffffffffffffff168173ffffffffffffffffffffffffffffffffffffffff161461042d576040517f08c379a0000000000000000000000000000000000000000000000000000000008152600401610424906114ea565b60405180910390fd5b8273ffffffffffffffffffffffffffffffffffffffff1663d204c45e3388806040019061045a9190611519565b6040518463ffffffff1660e01b8152600401610478939291906115b8565b600060405180830381600087803b15801561049257600080fd5b505af11580156104a6573d6000803e3d6000fd5b505050506104c68660600160208101906104c091906113df565b346108bc565b600160008154809291906104d990611619565b91905055506040518060e0016040528060015481526020018473ffffffffffffffffffffffffffffffffffffffff16815260200187600001358152602001876020013581526020013373ffffffffffffffffffffffffffffffffffffffff168152602001600115158152602001604051806020016040528060008152508152506002600060015481526020019081526020016000206000820151816000015560208201518160010160006101000a81548173ffffffffffffffffffffffffffffffffffffffff021916908373ffffffffffffffffffffffffffffffffffffffff160217905550604082015181600201556060820151816003015560808201518160040160006101000a81548173ffffffffffffffffffffffffffffffffffffffff021916908373ffffffffffffffffffffffffffffffffffffffff16021790555060a08201518160040160146101000a81548160ff02191690831515021790555060c0820151816005019080519060200190610656929190610f59565b509050503373ffffffffffffffffffffffffffffffffffffffff1686606001602081019061068491906113df565b73ffffffffffffffffffffffffffffffffffffffff166040516106a690611692565b60405180910390207f372bb52e3dab35a0ae446407f534d9a822ed76bd165609c64dffa8f5e0556f786001548a600001358b602001356040516106eb939291906116a7565b60405180910390a48560000135915050949350505050565b600060647f0000000000000000000000000000000000000000000000000000000000000000606461073491906116de565b60026000858152602001908152602001600020600301546107559190611734565b61075f91906117bd565b9050919050565b6107fc8160405160240161077a91906117ee565b6040516020818303038152906040527f2c2ecbc2000000000000000000000000000000000000000000000000000000007bffffffffffffffffffffffffffffffffffffffffffffffffffffffff19166020820180517bffffffffffffffffffffffffffffffffffffffffffffffffffffffff83818316178352505050506109b0565b50565b6000806108987f96977d0d2bc507a2b4441497633b945a207a10232bf944b73dcc2eef978d8ffc846000013585602001358680604001906108409190611519565b60405161084e929190611839565b604051809103902087606001602081019061086991906113df565b60405160200161087d95949392919061186b565b604051602081830303815290604052805190602001206109d9565b905080915050919050565b6000806108b084846109f3565b90508091505092915050565b804710156108ff576040517f08c379a00000000000000000000000000000000000000000000000000000000081526004016108f69061190a565b60405180910390fd5b60008273ffffffffffffffffffffffffffffffffffffffff16826040516109259061194d565b60006040518083038185875af1925050503d8060008114610962576040519150601f19603f3d011682016040523d82523d6000602084013e610967565b606091505b50509050806109ab576040517f08c379a00000000000000000000000000000000000000000000000000000000081526004016109a2906119d4565b60405180910390fd5b505050565b60008151905060006a636f6e736f6c652e6c6f679050602083016000808483855afa5050505050565b60006109ec6109e6610a1a565b83610b34565b9050919050565b6000806000610a028585610b67565b91509150610a0f81610be8565b819250505092915050565b60007f000000000000000000000000000000000000000000000000000000000000000073ffffffffffffffffffffffffffffffffffffffff163073ffffffffffffffffffffffffffffffffffffffff16148015610a9657507f000000000000000000000000000000000000000000000000000000000000000046145b15610ac3577f00000000000000000000000000000000000000000000000000000000000000009050610b31565b610b2e7f00000000000000000000000000000000000000000000000000000000000000007f00000000000000000000000000000000000000000000000000000000000000007f0000000000000000000000000000000000000000000000000000000000000000610db4565b90505b90565b60008282604051602001610b49929190611a61565b60405160208183030381529060405280519060200120905092915050565b6000806041835103610ba85760008060006020860151925060408601519150606086015160001a9050610b9c87828585610dee565b94509450505050610be1565b6040835103610bd8576000806020850151915060408501519050610bcd868383610efa565b935093505050610be1565b60006002915091505b9250929050565b60006004811115610bfc57610bfb611a98565b5b816004811115610c0f57610c0e611a98565b5b0315610db15760016004811115610c2957610c28611a98565b5b816004811115610c3c57610c3b611a98565b5b03610c7c576040517f08c379a0000000000000000000000000000000000000000000000000000000008152600401610c7390611b13565b60405180910390fd5b60026004811115610c9057610c8f611a98565b5b816004811115610ca357610ca2611a98565b5b03610ce3576040517f08c379a0000000000000000000000000000000000000000000000000000000008152600401610cda90611b7f565b60405180910390fd5b60036004811115610cf757610cf6611a98565b5b816004811115610d0a57610d09611a98565b5b03610d4a576040517f08c379a0000000000000000000000000000000000000000000000000000000008152600401610d4190611c11565b60405180910390fd5b600480811115610d5d57610d5c611a98565b5b816004811115610d7057610d6f611a98565b5b03610db0576040517f08c379a0000000000000000000000000000000000000000000000000000000008152600401610da790611ca3565b60405180910390fd5b5b50565b60008383834630604051602001610dcf959493929190611cc3565b6040516020818303038152906040528051906020012090509392505050565b6000807f7fffffffffffffffffffffffffffffff5d576e7357a4501ddfe92f46681b20a08360001c1115610e29576000600391509150610ef1565b601b8560ff1614158015610e415750601c8560ff1614155b15610e53576000600491509150610ef1565b600060018787878760405160008152602001604052604051610e789493929190611d32565b6020604051602081039080840390855afa158015610e9a573d6000803e3d6000fd5b505050602060405103519050600073ffffffffffffffffffffffffffffffffffffffff168173ffffffffffffffffffffffffffffffffffffffff1603610ee857600060019250925050610ef1565b80600092509250505b94509492505050565b60008060007f7fffffffffffffffffffffffffffffffffffffffffffffffffffffffffffffff60001b841690506000601b60ff8660001c901c610f3d91906116de565b9050610f4b87828885610dee565b935093505050935093915050565b828054610f65906113ae565b90600052602060002090601f016020900481019282610f875760008555610fce565b82601f10610fa057805160ff1916838001178555610fce565b82800160010185558215610fce579182015b82811115610fcd578251825591602001919060010190610fb2565b5b509050610fdb9190610fdf565b5090565b5b80821115610ff8576000816000905550600101610fe0565b5090565b600073ffffffffffffffffffffffffffffffffffffffff82169050919050565b600061102782610ffc565b9050919050565b6110378161101c565b82525050565b6000602082019050611052600083018461102e565b92915050565b6000819050919050565b61106b81611058565b82525050565b60006020820190506110866000830184611062565b92915050565b600080fd5b600080fd5b61109f81611058565b81146110aa57600080fd5b50565b6000813590506110bc81611096565b92915050565b6000602082840312156110d8576110d761108c565b5b60006110e6848285016110ad565b91505092915050565b60006110fa82610ffc565b9050919050565b61110a816110ef565b82525050565b60008115159050919050565b61112581611110565b82525050565b600081519050919050565b600082825260208201905092915050565b60005b8381101561116557808201518184015260208101905061114a565b83811115611174576000848401525b50505050565b6000601f19601f8301169050919050565b60006111968261112b565b6111a08185611136565b93506111b0818560208601611147565b6111b98161117a565b840191505092915050565b600060e0820190506111d9600083018a611062565b6111e66020830189611101565b6111f36040830188611062565b6112006060830187611062565b61120d608083018661102e565b61121a60a083018561111c565b81810360c083015261122c818461118b565b905098975050505050505050565b600080fd5b6000608082840312156112555761125461123a565b5b81905092915050565b600080fd5b600080fd5b600080fd5b60008083601f8401126112835761128261125e565b5b8235905067ffffffffffffffff8111156112a05761129f611263565b5b6020830191508360018202830111156112bc576112bb611268565b5b9250929050565b6112cc816110ef565b81146112d757600080fd5b50565b6000813590506112e9816112c3565b92915050565b600080600080606085870312156113095761130861108c565b5b600085013567ffffffffffffffff81111561132757611326611091565b5b6113338782880161123f565b945050602085013567ffffffffffffffff81111561135457611353611091565b5b6113608782880161126d565b93509350506040611373878288016112da565b91505092959194509250565b7f4e487b7100000000000000000000000000000000000000000000000000000000600052602260045260246000fd5b600060028204905060018216806113c657607f821691505b6020821081036113d9576113d861137f565b5b50919050565b6000602082840312156113f5576113f461108c565b5b6000611403848285016112da565b91505092915050565b7f53696d6f6e4465764e46543a204d6573736167652076616c756520213d20707260008201527f6963650000000000000000000000000000000000000000000000000000000000602082015250565b6000611468602383611136565b91506114738261140c565b604082019050919050565b600060208201905081810360008301526114978161145b565b9050919050565b7f696e76616c6964207369676e6174757265000000000000000000000000000000600082015250565b60006114d4601183611136565b91506114df8261149e565b602082019050919050565b60006020820190508181036000830152611503816114c7565b9050919050565b600080fd5b600080fd5b600080fd5b600080833560016020038436030381126115365761153561150a565b5b80840192508235915067ffffffffffffffff8211156115585761155761150f565b5b60208301925060018202360383131561157457611573611514565b5b509250929050565b82818337600083830152505050565b60006115978385611136565b93506115a483858461157c565b6115ad8361117a565b840190509392505050565b60006040820190506115cd6000830186611101565b81810360208301526115e081848661158b565b9050949350505050565b7f4e487b7100000000000000000000000000000000000000000000000000000000600052601160045260246000fd5b600061162482611058565b91507fffffffffffffffffffffffffffffffffffffffffffffffffffffffffffffffff8203611656576116556115ea565b5b600182019050919050565b600081905092915050565b50565b600061167c600083611661565b91506116878261166c565b600082019050919050565b600061169d8261166f565b9150819050919050565b60006060820190506116bc6000830186611062565b6116c96020830185611062565b6116d66040830184611062565b949350505050565b60006116e982611058565b91506116f483611058565b9250827fffffffffffffffffffffffffffffffffffffffffffffffffffffffffffffffff03821115611729576117286115ea565b5b828201905092915050565b600061173f82611058565b915061174a83611058565b9250817fffffffffffffffffffffffffffffffffffffffffffffffffffffffffffffffff0483118215151615611783576117826115ea565b5b828202905092915050565b7f4e487b7100000000000000000000000000000000000000000000000000000000600052601260045260246000fd5b60006117c882611058565b91506117d383611058565b9250826117e3576117e261178e565b5b828204905092915050565b60006020820190506118036000830184611101565b92915050565b600081905092915050565b60006118208385611809565b935061182d83858461157c565b82840190509392505050565b6000611846828486611814565b91508190509392505050565b6000819050919050565b61186581611852565b82525050565b600060a082019050611880600083018861185c565b61188d6020830187611062565b61189a6040830186611062565b6118a7606083018561185c565b6118b46080830184611101565b9695505050505050565b7f416464726573733a20696e73756666696369656e742062616c616e6365000000600082015250565b60006118f4601d83611136565b91506118ff826118be565b602082019050919050565b60006020820190508181036000830152611923816118e7565b9050919050565b6000611937600083611809565b91506119428261166c565b600082019050919050565b60006119588261192a565b9150819050919050565b7f416464726573733a20756e61626c6520746f2073656e642076616c75652c207260008201527f6563697069656e74206d61792068617665207265766572746564000000000000602082015250565b60006119be603a83611136565b91506119c982611962565b604082019050919050565b600060208201905081810360008301526119ed816119b1565b9050919050565b7f1901000000000000000000000000000000000000000000000000000000000000600082015250565b6000611a2a600283611661565b9150611a35826119f4565b600282019050919050565b6000819050919050565b611a5b611a5682611852565b611a40565b82525050565b6000611a6c82611a1d565b9150611a788285611a4a565b602082019150611a888284611a4a565b6020820191508190509392505050565b7f4e487b7100000000000000000000000000000000000000000000000000000000600052602160045260246000fd5b7f45434453413a20696e76616c6964207369676e61747572650000000000000000600082015250565b6000611afd601883611136565b9150611b0882611ac7565b602082019050919050565b60006020820190508181036000830152611b2c81611af0565b9050919050565b7f45434453413a20696e76616c6964207369676e6174757265206c656e67746800600082015250565b6000611b69601f83611136565b9150611b7482611b33565b602082019050919050565b60006020820190508181036000830152611b9881611b5c565b9050919050565b7f45434453413a20696e76616c6964207369676e6174757265202773272076616c60008201527f7565000000000000000000000000000000000000000000000000000000000000602082015250565b6000611bfb602283611136565b9150611c0682611b9f565b604082019050919050565b60006020820190508181036000830152611c2a81611bee565b9050919050565b7f45434453413a20696e76616c6964207369676e6174757265202776272076616c60008201527f7565000000000000000000000000000000000000000000000000000000000000602082015250565b6000611c8d602283611136565b9150611c9882611c31565b604082019050919050565b60006020820190508181036000830152611cbc81611c80565b9050919050565b600060a082019050611cd8600083018861185c565b611ce5602083018761185c565b611cf2604083018661185c565b611cff6060830185611062565b611d0c6080830184611101565b9695505050505050565b600060ff82169050919050565b611d2c81611d16565b82525050565b6000608082019050611d47600083018761185c565b611d546020830186611d23565b611d61604083018561185c565b611d6e606083018461185c565b9594505050505056fea2646970667358221220dba4ef2794355db8fa904e7bd48e99007bead4bfd8bf3614cb0f6037bd73d90264736f6c634300080e0033",
  "linkReferences": {},
  "deployedLinkReferences": {}
}