{
  "_format": "hh-sol-artifact-1",
  "contractName": "NFTCollection1",
  "sourceName": "src/backend/contracts/NFTCollection1.sol",
  "abi": [
    {
      "inputs": [
        {
          "internalType": "address",
          "name": "marketplace_",
          "type": "address"
        }
      ],
      "stateMutability": "nonpayable",
      "type": "constructor"
    },
    {
      "anonymous": false,
      "inputs": [
        {
          "indexed": true,
          "internalType": "address",
          "name": "owner",
          "type": "address"
        },
        {
          "indexed": true,
          "internalType": "address",
          "name": "approved",
          "type": "address"
        },
        {
          "indexed": true,
          "internalType": "uint256",
          "name": "tokenId",
          "type": "uint256"
        }
      ],
      "name": "Approval",
      "type": "event"
    },
    {
      "anonymous": false,
      "inputs": [
        {
          "indexed": true,
          "internalType": "address",
          "name": "owner",
          "type": "address"
        },
        {
          "indexed": true,
          "internalType": "address",
          "name": "operator",
          "type": "address"
        },
        {
          "indexed": false,
          "internalType": "bool",
          "name": "approved",
          "type": "bool"
        }
      ],
      "name": "ApprovalForAll",
      "type": "event"
    },
    {
      "anonymous": false,
      "inputs": [
        {
          "indexed": true,
          "internalType": "bytes32",
          "name": "role",
          "type": "bytes32"
        },
        {
          "indexed": true,
          "internalType": "bytes32",
          "name": "previousAdminRole",
          "type": "bytes32"
        },
        {
          "indexed": true,
          "internalType": "bytes32",
          "name": "newAdminRole",
          "type": "bytes32"
        }
      ],
      "name": "RoleAdminChanged",
      "type": "event"
    },
    {
      "anonymous": false,
      "inputs": [
        {
          "indexed": true,
          "internalType": "bytes32",
          "name": "role",
          "type": "bytes32"
        },
        {
          "indexed": true,
          "internalType": "address",
          "name": "account",
          "type": "address"
        },
        {
          "indexed": true,
          "internalType": "address",
          "name": "sender",
          "type": "address"
        }
      ],
      "name": "RoleGranted",
      "type": "event"
    },
    {
      "anonymous": false,
      "inputs": [
        {
          "indexed": true,
          "internalType": "bytes32",
          "name": "role",
          "type": "bytes32"
        },
        {
          "indexed": true,
          "internalType": "address",
          "name": "account",
          "type": "address"
        },
        {
          "indexed": true,
          "internalType": "address",
          "name": "sender",
          "type": "address"
        }
      ],
      "name": "RoleRevoked",
      "type": "event"
    },
    {
      "anonymous": false,
      "inputs": [
        {
          "indexed": true,
          "internalType": "address",
          "name": "from",
          "type": "address"
        },
        {
          "indexed": true,
          "internalType": "address",
          "name": "to",
          "type": "address"
        },
        {
          "indexed": true,
          "internalType": "uint256",
          "name": "tokenId",
          "type": "uint256"
        }
      ],
      "name": "Transfer",
      "type": "event"
    },
    {
      "inputs": [],
      "name": "DEFAULT_ADMIN_ROLE",
      "outputs": [
        {
          "internalType": "bytes32",
          "name": "",
          "type": "bytes32"
        }
      ],
      "stateMutability": "view",
      "type": "function"
    },
    {
      "inputs": [],
      "name": "MINTER_ROLE",
      "outputs": [
        {
          "internalType": "bytes32",
          "name": "",
          "type": "bytes32"
        }
      ],
      "stateMutability": "view",
      "type": "function"
    },
    {
      "inputs": [],
      "name": "TRANSFER_ROLE",
      "outputs": [
        {
          "internalType": "bytes32",
          "name": "",
          "type": "bytes32"
        }
      ],
      "stateMutability": "view",
      "type": "function"
    },
    {
      "inputs": [
        {
          "internalType": "address",
          "name": "to",
          "type": "address"
        },
        {
          "internalType": "uint256",
          "name": "tokenId",
          "type": "uint256"
        }
      ],
      "name": "approve",
      "outputs": [],
      "stateMutability": "nonpayable",
      "type": "function"
    },
    {
      "inputs": [
        {
          "internalType": "address",
          "name": "owner",
          "type": "address"
        }
      ],
      "name": "balanceOf",
      "outputs": [
        {
          "internalType": "uint256",
          "name": "",
          "type": "uint256"
        }
      ],
      "stateMutability": "view",
      "type": "function"
    },
    {
      "inputs": [
        {
          "internalType": "uint256",
          "name": "tokenId",
          "type": "uint256"
        }
      ],
      "name": "getApproved",
      "outputs": [
        {
          "internalType": "address",
          "name": "",
          "type": "address"
        }
      ],
      "stateMutability": "view",
      "type": "function"
    },
    {
      "inputs": [
        {
          "internalType": "bytes32",
          "name": "role",
          "type": "bytes32"
        }
      ],
      "name": "getRoleAdmin",
      "outputs": [
        {
          "internalType": "bytes32",
          "name": "",
          "type": "bytes32"
        }
      ],
      "stateMutability": "view",
      "type": "function"
    },
    {
      "inputs": [
        {
          "internalType": "bytes32",
          "name": "role",
          "type": "bytes32"
        },
        {
          "internalType": "address",
          "name": "account",
          "type": "address"
        }
      ],
      "name": "grantRole",
      "outputs": [],
      "stateMutability": "nonpayable",
      "type": "function"
    },
    {
      "inputs": [
        {
          "internalType": "bytes32",
          "name": "role",
          "type": "bytes32"
        },
        {
          "internalType": "address",
          "name": "account",
          "type": "address"
        }
      ],
      "name": "hasRole",
      "outputs": [
        {
          "internalType": "bool",
          "name": "",
          "type": "bool"
        }
      ],
      "stateMutability": "view",
      "type": "function"
    },
    {
      "inputs": [
        {
          "internalType": "address",
          "name": "owner",
          "type": "address"
        },
        {
          "internalType": "address",
          "name": "operator",
          "type": "address"
        }
      ],
      "name": "isApprovedForAll",
      "outputs": [
        {
          "internalType": "bool",
          "name": "",
          "type": "bool"
        }
      ],
      "stateMutability": "view",
      "type": "function"
    },
    {
      "inputs": [],
      "name": "name",
      "outputs": [
        {
          "internalType": "string",
          "name": "",
          "type": "string"
        }
      ],
      "stateMutability": "view",
      "type": "function"
    },
    {
      "inputs": [
        {
          "internalType": "uint256",
          "name": "tokenId",
          "type": "uint256"
        }
      ],
      "name": "ownerOf",
      "outputs": [
        {
          "internalType": "address",
          "name": "",
          "type": "address"
        }
      ],
      "stateMutability": "view",
      "type": "function"
    },
    {
      "inputs": [
        {
          "internalType": "bytes32",
          "name": "role",
          "type": "bytes32"
        },
        {
          "internalType": "address",
          "name": "account",
          "type": "address"
        }
      ],
      "name": "renounceRole",
      "outputs": [],
      "stateMutability": "nonpayable",
      "type": "function"
    },
    {
      "inputs": [
        {
          "internalType": "bytes32",
          "name": "role",
          "type": "bytes32"
        },
        {
          "internalType": "address",
          "name": "account",
          "type": "address"
        }
      ],
      "name": "revokeRole",
      "outputs": [],
      "stateMutability": "nonpayable",
      "type": "function"
    },
    {
      "inputs": [
        {
          "internalType": "address",
          "name": "to",
          "type": "address"
        },
        {
          "internalType": "string",
          "name": "uri",
          "type": "string"
        }
      ],
      "name": "safeMint",
      "outputs": [],
      "stateMutability": "nonpayable",
      "type": "function"
    },
    {
      "inputs": [
        {
          "internalType": "address",
          "name": "from",
          "type": "address"
        },
        {
          "internalType": "address",
          "name": "to",
          "type": "address"
        },
        {
          "internalType": "uint256",
          "name": "tokenId",
          "type": "uint256"
        }
      ],
      "name": "safeTransferFrom",
      "outputs": [],
      "stateMutability": "nonpayable",
      "type": "function"
    },
    {
      "inputs": [
        {
          "internalType": "address",
          "name": "from",
          "type": "address"
        },
        {
          "internalType": "address",
          "name": "to",
          "type": "address"
        },
        {
          "internalType": "uint256",
          "name": "tokenId",
          "type": "uint256"
        },
        {
          "internalType": "bytes",
          "name": "_data",
          "type": "bytes"
        }
      ],
      "name": "safeTransferFrom",
      "outputs": [],
      "stateMutability": "nonpayable",
      "type": "function"
    },
    {
      "inputs": [
        {
          "internalType": "address",
          "name": "operator",
          "type": "address"
        },
        {
          "internalType": "bool",
          "name": "approved",
          "type": "bool"
        }
      ],
      "name": "setApprovalForAll",
      "outputs": [],
      "stateMutability": "nonpayable",
      "type": "function"
    },
    {
      "inputs": [
        {
          "internalType": "bytes4",
          "name": "interfaceId",
          "type": "bytes4"
        }
      ],
      "name": "supportsInterface",
      "outputs": [
        {
          "internalType": "bool",
          "name": "",
          "type": "bool"
        }
      ],
      "stateMutability": "view",
      "type": "function"
    },
    {
      "inputs": [],
      "name": "symbol",
      "outputs": [
        {
          "internalType": "string",
          "name": "",
          "type": "string"
        }
      ],
      "stateMutability": "view",
      "type": "function"
    },
    {
      "inputs": [
        {
          "internalType": "uint256",
          "name": "tokenId",
          "type": "uint256"
        }
      ],
      "name": "tokenURI",
      "outputs": [
        {
          "internalType": "string",
          "name": "",
          "type": "string"
        }
      ],
      "stateMutability": "view",
      "type": "function"
    },
    {
      "inputs": [
        {
          "internalType": "address",
          "name": "from",
          "type": "address"
        },
        {
          "internalType": "address",
          "name": "to",
          "type": "address"
        },
        {
          "internalType": "uint256",
          "name": "tokenId",
          "type": "uint256"
        }
      ],
      "name": "transferFrom",
      "outputs": [],
      "stateMutability": "nonpayable",
      "type": "function"
    }
  ],
  "bytecode": "0x60806040523480156200001157600080fd5b5060405162003d8138038062003d8183398181016040528101906200003791906200040e565b6040518060400160405280600e81526020017f4e4654436f6c6c656374696f6e310000000000000000000000000000000000008152506040518060400160405280600481526020017f4e465431000000000000000000000000000000000000000000000000000000008152508282828160009080519060200190620000be929190620002f4565b508060019080519060200190620000d7929190620002f4565b505050620000ef6000801b336200018f60201b60201c565b620001217f9f2df0fed2c77648de5860a4cc508cd0818c85b8b8a1ab4ceeef8d981c8956a6336200018f60201b60201c565b620001537f9f2df0fed2c77648de5860a4cc508cd0818c85b8b8a1ab4ceeef8d981c8956a6826200018f60201b60201c565b620001857f8502233096d909befbda0999bb8ea2f3a6be3c138b9fbf003752a4c8bce86f6c826200018f60201b60201c565b50505050620004a4565b620001a182826200028160201b60201c565b6200027d5760016007600084815260200190815260200160002060000160008373ffffffffffffffffffffffffffffffffffffffff1673ffffffffffffffffffffffffffffffffffffffff16815260200190815260200160002060006101000a81548160ff02191690831515021790555062000222620002ec60201b60201c565b73ffffffffffffffffffffffffffffffffffffffff168173ffffffffffffffffffffffffffffffffffffffff16837f2f8788117e7eff1d82e926ec794901d17c78024a50270940304540a733656f0d60405160405180910390a45b5050565b60006007600084815260200190815260200160002060000160008373ffffffffffffffffffffffffffffffffffffffff1673ffffffffffffffffffffffffffffffffffffffff16815260200190815260200160002060009054906101000a900460ff16905092915050565b600033905090565b82805462000302906200046f565b90600052602060002090601f01602090048101928262000326576000855562000372565b82601f106200034157805160ff191683800117855562000372565b8280016001018555821562000372579182015b828111156200037157825182559160200191906001019062000354565b5b50905062000381919062000385565b5090565b5b80821115620003a057600081600090555060010162000386565b5090565b600080fd5b600073ffffffffffffffffffffffffffffffffffffffff82169050919050565b6000620003d682620003a9565b9050919050565b620003e881620003c9565b8114620003f457600080fd5b50565b6000815190506200040881620003dd565b92915050565b600060208284031215620004275762000426620003a4565b5b60006200043784828501620003f7565b91505092915050565b7f4e487b7100000000000000000000000000000000000000000000000000000000600052602260045260246000fd5b600060028204905060018216806200048857607f821691505b6020821081036200049e576200049d62000440565b5b50919050565b6138cd80620004b46000396000f3fe608060405234801561001057600080fd5b50600436106101425760003560e01c806370a08231116100b8578063b88d4fde1161007c578063b88d4fde14610387578063c87b56dd146103a3578063d204c45e146103d3578063d5391393146103ef578063d547741f1461040d578063e985e9c51461042957610142565b806370a08231146102cf57806391d14854146102ff57806395d89b411461032f578063a217fddf1461034d578063a22cb4651461036b57610142565b806323b872dd1161010a57806323b872dd146101ff578063248a9ca31461021b5780632f2ff15d1461024b57806336568abe1461026757806342842e0e146102835780636352211e1461029f57610142565b806301ffc9a71461014757806306fdde0314610177578063081812fc14610195578063095ea7b3146101c5578063206b60f9146101e1575b600080fd5b610161600480360381019061015c919061227f565b610459565b60405161016e91906122c7565b60405180910390f35b61017f61046b565b60405161018c919061237b565b60405180910390f35b6101af60048036038101906101aa91906123d3565b6104fd565b6040516101bc9190612441565b60405180910390f35b6101df60048036038101906101da9190612488565b610582565b005b6101e9610699565b6040516101f691906124e1565b60405180910390f35b610219600480360381019061021491906124fc565b6106bd565b005b6102356004803603810190610230919061257b565b61071d565b60405161024291906124e1565b60405180910390f35b610265600480360381019061026091906125a8565b61073d565b005b610281600480360381019061027c91906125a8565b61075e565b005b61029d600480360381019061029891906124fc565b6107e1565b005b6102b960048036038101906102b491906123d3565b610889565b6040516102c69190612441565b60405180910390f35b6102e960048036038101906102e491906125e8565b61093a565b6040516102f69190612624565b60405180910390f35b610319600480360381019061031491906125a8565b6109f1565b60405161032691906122c7565b60405180910390f35b610337610a5c565b604051610344919061237b565b60405180910390f35b610355610aee565b60405161036291906124e1565b60405180910390f35b6103856004803603810190610380919061266b565b610af5565b005b6103a1600480360381019061039c91906127e0565b610b0b565b005b6103bd60048036038101906103b891906123d3565b610b6d565b6040516103ca919061237b565b60405180910390f35b6103ed60048036038101906103e89190612904565b610b7f565b005b6103f7610bdb565b60405161040491906124e1565b60405180910390f35b610427600480360381019061042291906125a8565b610bff565b005b610443600480360381019061043e9190612960565b610c20565b60405161045091906122c7565b60405180910390f35b600061046482610cb4565b9050919050565b60606000805461047a906129cf565b80601f01602080910402602001604051908101604052809291908181526020018280546104a6906129cf565b80156104f35780601f106104c8576101008083540402835291602001916104f3565b820191906000526020600020905b8154815290600101906020018083116104d657829003601f168201915b5050505050905090565b600061050882610d2e565b610547576040517f08c379a000000000000000000000000000000000000000000000000000000000815260040161053e90612a72565b60405180910390fd5b6004600083815260200190815260200160002060009054906101000a900473ffffffffffffffffffffffffffffffffffffffff169050919050565b600061058d82610889565b90508073ffffffffffffffffffffffffffffffffffffffff168373ffffffffffffffffffffffffffffffffffffffff16036105fd576040517f08c379a00000000000000000000000000000000000000000000000000000000081526004016105f490612b04565b60405180910390fd5b8073ffffffffffffffffffffffffffffffffffffffff1661061c610d9a565b73ffffffffffffffffffffffffffffffffffffffff16148061064b575061064a81610645610d9a565b610c20565b5b61068a576040517f08c379a000000000000000000000000000000000000000000000000000000000815260040161068190612b96565b60405180910390fd5b6106948383610da2565b505050565b7f8502233096d909befbda0999bb8ea2f3a6be3c138b9fbf003752a4c8bce86f6c81565b6106ce6106c8610d9a565b82610e5b565b61070d576040517f08c379a000000000000000000000000000000000000000000000000000000000815260040161070490612c28565b60405180910390fd5b610718838383610f39565b505050565b600060076000838152602001908152602001600020600101549050919050565b6107468261071d565b61074f8161119f565b61075983836111b3565b505050565b610766610d9a565b73ffffffffffffffffffffffffffffffffffffffff168173ffffffffffffffffffffffffffffffffffffffff16146107d3576040517f08c379a00000000000000000000000000000000000000000000000000000000081526004016107ca90612cba565b60405180910390fd5b6107dd8282611294565b5050565b6107f26107ec610d9a565b82610e5b565b8061082a57506108297f8502233096d909befbda0999bb8ea2f3a6be3c138b9fbf003752a4c8bce86f6c610824610d9a565b6109f1565b5b610869576040517f08c379a000000000000000000000000000000000000000000000000000000000815260040161086090612d4c565b60405180910390fd5b61088483838360405180602001604052806000815250611376565b505050565b6000806002600084815260200190815260200160002060009054906101000a900473ffffffffffffffffffffffffffffffffffffffff169050600073ffffffffffffffffffffffffffffffffffffffff168173ffffffffffffffffffffffffffffffffffffffff1603610931576040517f08c379a000000000000000000000000000000000000000000000000000000000815260040161092890612dde565b60405180910390fd5b80915050919050565b60008073ffffffffffffffffffffffffffffffffffffffff168273ffffffffffffffffffffffffffffffffffffffff16036109aa576040517f08c379a00000000000000000000000000000000000000000000000000000000081526004016109a190612e70565b60405180910390fd5b600360008373ffffffffffffffffffffffffffffffffffffffff1673ffffffffffffffffffffffffffffffffffffffff168152602001908152602001600020549050919050565b60006007600084815260200190815260200160002060000160008373ffffffffffffffffffffffffffffffffffffffff1673ffffffffffffffffffffffffffffffffffffffff16815260200190815260200160002060009054906101000a900460ff16905092915050565b606060018054610a6b906129cf565b80601f0160208091040260200160405190810160405280929190818152602001828054610a97906129cf565b8015610ae45780601f10610ab957610100808354040283529160200191610ae4565b820191906000526020600020905b815481529060010190602001808311610ac757829003601f168201915b5050505050905090565b6000801b81565b610b07610b00610d9a565b83836113d2565b5050565b610b1c610b16610d9a565b83610e5b565b610b5b576040517f08c379a0000000000000000000000000000000000000000000000000000000008152600401610b5290612c28565b60405180910390fd5b610b6784848484611376565b50505050565b6060610b788261153e565b9050919050565b7f9f2df0fed2c77648de5860a4cc508cd0818c85b8b8a1ab4ceeef8d981c8956a6610ba98161119f565b6000610bb5600861168f565b9050610bc1600861169d565b610bcb84826116b3565b610bd581846116d1565b50505050565b7f9f2df0fed2c77648de5860a4cc508cd0818c85b8b8a1ab4ceeef8d981c8956a681565b610c088261071d565b610c118161119f565b610c1b8383611294565b505050565b6000600560008473ffffffffffffffffffffffffffffffffffffffff1673ffffffffffffffffffffffffffffffffffffffff16815260200190815260200160002060008373ffffffffffffffffffffffffffffffffffffffff1673ffffffffffffffffffffffffffffffffffffffff16815260200190815260200160002060009054906101000a900460ff16905092915050565b60007f7965db0b000000000000000000000000000000000000000000000000000000007bffffffffffffffffffffffffffffffffffffffffffffffffffffffff1916827bffffffffffffffffffffffffffffffffffffffffffffffffffffffff19161480610d275750610d2682611745565b5b9050919050565b60008073ffffffffffffffffffffffffffffffffffffffff166002600084815260200190815260200160002060009054906101000a900473ffffffffffffffffffffffffffffffffffffffff1673ffffffffffffffffffffffffffffffffffffffff1614159050919050565b600033905090565b816004600083815260200190815260200160002060006101000a81548173ffffffffffffffffffffffffffffffffffffffff021916908373ffffffffffffffffffffffffffffffffffffffff160217905550808273ffffffffffffffffffffffffffffffffffffffff16610e1583610889565b73ffffffffffffffffffffffffffffffffffffffff167f8c5be1e5ebec7d5bd14f71427d1e84f3dd0314c0f7b2291e5b200ac8c7c3b92560405160405180910390a45050565b6000610e6682610d2e565b610ea5576040517f08c379a0000000000000000000000000000000000000000000000000000000008152600401610e9c90612f02565b60405180910390fd5b6000610eb083610889565b90508073ffffffffffffffffffffffffffffffffffffffff168473ffffffffffffffffffffffffffffffffffffffff161480610ef25750610ef18185610c20565b5b80610f3057508373ffffffffffffffffffffffffffffffffffffffff16610f18846104fd565b73ffffffffffffffffffffffffffffffffffffffff16145b91505092915050565b8273ffffffffffffffffffffffffffffffffffffffff16610f5982610889565b73ffffffffffffffffffffffffffffffffffffffff1614610faf576040517f08c379a0000000000000000000000000000000000000000000000000000000008152600401610fa690612f94565b60405180910390fd5b600073ffffffffffffffffffffffffffffffffffffffff168273ffffffffffffffffffffffffffffffffffffffff160361101e576040517f08c379a000000000000000000000000000000000000000000000000000000000815260040161101590613026565b60405180910390fd5b611029838383611827565b611034600082610da2565b6001600360008573ffffffffffffffffffffffffffffffffffffffff1673ffffffffffffffffffffffffffffffffffffffff16815260200190815260200160002060008282546110849190613075565b925050819055506001600360008473ffffffffffffffffffffffffffffffffffffffff1673ffffffffffffffffffffffffffffffffffffffff16815260200190815260200160002060008282546110db91906130a9565b92505081905550816002600083815260200190815260200160002060006101000a81548173ffffffffffffffffffffffffffffffffffffffff021916908373ffffffffffffffffffffffffffffffffffffffff160217905550808273ffffffffffffffffffffffffffffffffffffffff168473ffffffffffffffffffffffffffffffffffffffff167fddf252ad1be2c89b69c2b068fc378daa952ba7f163c4a11628f55a4df523b3ef60405160405180910390a461119a83838361182c565b505050565b6111b0816111ab610d9a565b611831565b50565b6111bd82826109f1565b6112905760016007600084815260200190815260200160002060000160008373ffffffffffffffffffffffffffffffffffffffff1673ffffffffffffffffffffffffffffffffffffffff16815260200190815260200160002060006101000a81548160ff021916908315150217905550611235610d9a565b73ffffffffffffffffffffffffffffffffffffffff168173ffffffffffffffffffffffffffffffffffffffff16837f2f8788117e7eff1d82e926ec794901d17c78024a50270940304540a733656f0d60405160405180910390a45b5050565b61129e82826109f1565b156113725760006007600084815260200190815260200160002060000160008373ffffffffffffffffffffffffffffffffffffffff1673ffffffffffffffffffffffffffffffffffffffff16815260200190815260200160002060006101000a81548160ff021916908315150217905550611317610d9a565b73ffffffffffffffffffffffffffffffffffffffff168173ffffffffffffffffffffffffffffffffffffffff16837ff6391f5c32d9c69d2a47ea670b442974b53935d1edc7fd64eb21e047a839171b60405160405180910390a45b5050565b611381848484610f39565b61138d848484846118ce565b6113cc576040517f08c379a00000000000000000000000000000000000000000000000000000000081526004016113c390613171565b60405180910390fd5b50505050565b8173ffffffffffffffffffffffffffffffffffffffff168373ffffffffffffffffffffffffffffffffffffffff1603611440576040517f08c379a0000000000000000000000000000000000000000000000000000000008152600401611437906131dd565b60405180910390fd5b80600560008573ffffffffffffffffffffffffffffffffffffffff1673ffffffffffffffffffffffffffffffffffffffff16815260200190815260200160002060008473ffffffffffffffffffffffffffffffffffffffff1673ffffffffffffffffffffffffffffffffffffffff16815260200190815260200160002060006101000a81548160ff0219169083151502179055508173ffffffffffffffffffffffffffffffffffffffff168373ffffffffffffffffffffffffffffffffffffffff167f17307eab39ab6107e8899845ad3d59bd9653f200f220920489ca2b5937696c318360405161153191906122c7565b60405180910390a3505050565b606061154982610d2e565b611588576040517f08c379a000000000000000000000000000000000000000000000000000000000815260040161157f9061326f565b60405180910390fd5b60006006600084815260200190815260200160002080546115a8906129cf565b80601f01602080910402602001604051908101604052809291908181526020018280546115d4906129cf565b80156116215780601f106115f657610100808354040283529160200191611621565b820191906000526020600020905b81548152906001019060200180831161160457829003601f168201915b505050505090506000611632611a55565b9050600081510361164757819250505061168a565b60008251111561167c5780826040516020016116649291906132cb565b6040516020818303038152906040529250505061168a565b61168584611a6c565b925050505b919050565b600081600001549050919050565b6001816000016000828254019250508190555050565b6116cd828260405180602001604052806000815250611b13565b5050565b6116da82610d2e565b611719576040517f08c379a000000000000000000000000000000000000000000000000000000000815260040161171090613361565b60405180910390fd5b80600660008481526020019081526020016000209080519060200190611740929190612170565b505050565b60007f80ac58cd000000000000000000000000000000000000000000000000000000007bffffffffffffffffffffffffffffffffffffffffffffffffffffffff1916827bffffffffffffffffffffffffffffffffffffffffffffffffffffffff1916148061181057507f5b5e139f000000000000000000000000000000000000000000000000000000007bffffffffffffffffffffffffffffffffffffffffffffffffffffffff1916827bffffffffffffffffffffffffffffffffffffffffffffffffffffffff1916145b80611820575061181f82611b6e565b5b9050919050565b505050565b505050565b61183b82826109f1565b6118ca576118608173ffffffffffffffffffffffffffffffffffffffff166014611bd8565b61186e8360001c6020611bd8565b60405160200161187f929190613419565b6040516020818303038152906040526040517f08c379a00000000000000000000000000000000000000000000000000000000081526004016118c1919061237b565b60405180910390fd5b5050565b60006118ef8473ffffffffffffffffffffffffffffffffffffffff16611e14565b15611a48578373ffffffffffffffffffffffffffffffffffffffff1663150b7a02611918610d9a565b8786866040518563ffffffff1660e01b815260040161193a94939291906134a8565b6020604051808303816000875af192505050801561197657506040513d601f19601f820116820180604052508101906119739190613509565b60015b6119f8573d80600081146119a6576040519150601f19603f3d011682016040523d82523d6000602084013e6119ab565b606091505b5060008151036119f0576040517f08c379a00000000000000000000000000000000000000000000000000000000081526004016119e790613171565b60405180910390fd5b805181602001fd5b63150b7a0260e01b7bffffffffffffffffffffffffffffffffffffffffffffffffffffffff1916817bffffffffffffffffffffffffffffffffffffffffffffffffffffffff191614915050611a4d565b600190505b949350505050565b606060405180602001604052806000815250905090565b6060611a7782610d2e565b611ab6576040517f08c379a0000000000000000000000000000000000000000000000000000000008152600401611aad906135a8565b60405180910390fd5b6000611ac0611a55565b90506000815111611ae05760405180602001604052806000815250611b0b565b80611aea84611e37565b604051602001611afb9291906132cb565b6040516020818303038152906040525b915050919050565b611b1d8383611f97565b611b2a60008484846118ce565b611b69576040517f08c379a0000000000000000000000000000000000000000000000000000000008152600401611b6090613171565b60405180910390fd5b505050565b60007f01ffc9a7000000000000000000000000000000000000000000000000000000007bffffffffffffffffffffffffffffffffffffffffffffffffffffffff1916827bffffffffffffffffffffffffffffffffffffffffffffffffffffffff1916149050919050565b606060006002836002611beb91906135c8565b611bf591906130a9565b67ffffffffffffffff811115611c0e57611c0d6126b5565b5b6040519080825280601f01601f191660200182016040528015611c405781602001600182028036833780820191505090505b5090507f300000000000000000000000000000000000000000000000000000000000000081600081518110611c7857611c77613622565b5b60200101907effffffffffffffffffffffffffffffffffffffffffffffffffffffffffffff1916908160001a9053507f780000000000000000000000000000000000000000000000000000000000000081600181518110611cdc57611cdb613622565b5b60200101907effffffffffffffffffffffffffffffffffffffffffffffffffffffffffffff1916908160001a90535060006001846002611d1c91906135c8565b611d2691906130a9565b90505b6001811115611dc6577f3031323334353637383961626364656600000000000000000000000000000000600f861660108110611d6857611d67613622565b5b1a60f81b828281518110611d7f57611d7e613622565b5b60200101907effffffffffffffffffffffffffffffffffffffffffffffffffffffffffffff1916908160001a905350600485901c945080611dbf90613651565b9050611d29565b5060008414611e0a576040517f08c379a0000000000000000000000000000000000000000000000000000000008152600401611e01906136c6565b60405180910390fd5b8091505092915050565b6000808273ffffffffffffffffffffffffffffffffffffffff163b119050919050565b606060008203611e7e576040518060400160405280600181526020017f30000000000000000000000000000000000000000000000000000000000000008152509050611f92565b600082905060005b60008214611eb0578080611e99906136e6565b915050600a82611ea9919061375d565b9150611e86565b60008167ffffffffffffffff811115611ecc57611ecb6126b5565b5b6040519080825280601f01601f191660200182016040528015611efe5781602001600182028036833780820191505090505b5090505b60008514611f8b57600182611f179190613075565b9150600a85611f26919061378e565b6030611f3291906130a9565b60f81b818381518110611f4857611f47613622565b5b60200101907effffffffffffffffffffffffffffffffffffffffffffffffffffffffffffff1916908160001a905350600a85611f84919061375d565b9450611f02565b8093505050505b919050565b600073ffffffffffffffffffffffffffffffffffffffff168273ffffffffffffffffffffffffffffffffffffffff1603612006576040517f08c379a0000000000000000000000000000000000000000000000000000000008152600401611ffd9061380b565b60405180910390fd5b61200f81610d2e565b1561204f576040517f08c379a000000000000000000000000000000000000000000000000000000000815260040161204690613877565b60405180910390fd5b61205b60008383611827565b6001600360008473ffffffffffffffffffffffffffffffffffffffff1673ffffffffffffffffffffffffffffffffffffffff16815260200190815260200160002060008282546120ab91906130a9565b92505081905550816002600083815260200190815260200160002060006101000a81548173ffffffffffffffffffffffffffffffffffffffff021916908373ffffffffffffffffffffffffffffffffffffffff160217905550808273ffffffffffffffffffffffffffffffffffffffff16600073ffffffffffffffffffffffffffffffffffffffff167fddf252ad1be2c89b69c2b068fc378daa952ba7f163c4a11628f55a4df523b3ef60405160405180910390a461216c6000838361182c565b5050565b82805461217c906129cf565b90600052602060002090601f01602090048101928261219e57600085556121e5565b82601f106121b757805160ff19168380011785556121e5565b828001600101855582156121e5579182015b828111156121e45782518255916020019190600101906121c9565b5b5090506121f291906121f6565b5090565b5b8082111561220f5760008160009055506001016121f7565b5090565b6000604051905090565b600080fd5b600080fd5b60007fffffffff0000000000000000000000000000000000000000000000000000000082169050919050565b61225c81612227565b811461226757600080fd5b50565b60008135905061227981612253565b92915050565b6000602082840312156122955761229461221d565b5b60006122a38482850161226a565b91505092915050565b60008115159050919050565b6122c1816122ac565b82525050565b60006020820190506122dc60008301846122b8565b92915050565b600081519050919050565b600082825260208201905092915050565b60005b8381101561231c578082015181840152602081019050612301565b8381111561232b576000848401525b50505050565b6000601f19601f8301169050919050565b600061234d826122e2565b61235781856122ed565b93506123678185602086016122fe565b61237081612331565b840191505092915050565b600060208201905081810360008301526123958184612342565b905092915050565b6000819050919050565b6123b08161239d565b81146123bb57600080fd5b50565b6000813590506123cd816123a7565b92915050565b6000602082840312156123e9576123e861221d565b5b60006123f7848285016123be565b91505092915050565b600073ffffffffffffffffffffffffffffffffffffffff82169050919050565b600061242b82612400565b9050919050565b61243b81612420565b82525050565b60006020820190506124566000830184612432565b92915050565b61246581612420565b811461247057600080fd5b50565b6000813590506124828161245c565b92915050565b6000806040838503121561249f5761249e61221d565b5b60006124ad85828601612473565b92505060206124be858286016123be565b9150509250929050565b6000819050919050565b6124db816124c8565b82525050565b60006020820190506124f660008301846124d2565b92915050565b6000806000606084860312156125155761251461221d565b5b600061252386828701612473565b935050602061253486828701612473565b9250506040612545868287016123be565b9150509250925092565b612558816124c8565b811461256357600080fd5b50565b6000813590506125758161254f565b92915050565b6000602082840312156125915761259061221d565b5b600061259f84828501612566565b91505092915050565b600080604083850312156125bf576125be61221d565b5b60006125cd85828601612566565b92505060206125de85828601612473565b9150509250929050565b6000602082840312156125fe576125fd61221d565b5b600061260c84828501612473565b91505092915050565b61261e8161239d565b82525050565b60006020820190506126396000830184612615565b92915050565b612648816122ac565b811461265357600080fd5b50565b6000813590506126658161263f565b92915050565b600080604083850312156126825761268161221d565b5b600061269085828601612473565b92505060206126a185828601612656565b9150509250929050565b600080fd5b600080fd5b7f4e487b7100000000000000000000000000000000000000000000000000000000600052604160045260246000fd5b6126ed82612331565b810181811067ffffffffffffffff8211171561270c5761270b6126b5565b5b80604052505050565b600061271f612213565b905061272b82826126e4565b919050565b600067ffffffffffffffff82111561274b5761274a6126b5565b5b61275482612331565b9050602081019050919050565b82818337600083830152505050565b600061278361277e84612730565b612715565b90508281526020810184848401111561279f5761279e6126b0565b5b6127aa848285612761565b509392505050565b600082601f8301126127c7576127c66126ab565b5b81356127d7848260208601612770565b91505092915050565b600080600080608085870312156127fa576127f961221d565b5b600061280887828801612473565b945050602061281987828801612473565b935050604061282a878288016123be565b925050606085013567ffffffffffffffff81111561284b5761284a612222565b5b612857878288016127b2565b91505092959194509250565b600067ffffffffffffffff82111561287e5761287d6126b5565b5b61288782612331565b9050602081019050919050565b60006128a76128a284612863565b612715565b9050828152602081018484840111156128c3576128c26126b0565b5b6128ce848285612761565b509392505050565b600082601f8301126128eb576128ea6126ab565b5b81356128fb848260208601612894565b91505092915050565b6000806040838503121561291b5761291a61221d565b5b600061292985828601612473565b925050602083013567ffffffffffffffff81111561294a57612949612222565b5b612956858286016128d6565b9150509250929050565b600080604083850312156129775761297661221d565b5b600061298585828601612473565b925050602061299685828601612473565b9150509250929050565b7f4e487b7100000000000000000000000000000000000000000000000000000000600052602260045260246000fd5b600060028204905060018216806129e757607f821691505b6020821081036129fa576129f96129a0565b5b50919050565b7f4552433732313a20617070726f76656420717565727920666f72206e6f6e657860008201527f697374656e7420746f6b656e0000000000000000000000000000000000000000602082015250565b6000612a5c602c836122ed565b9150612a6782612a00565b604082019050919050565b60006020820190508181036000830152612a8b81612a4f565b9050919050565b7f4552433732313a20617070726f76616c20746f2063757272656e74206f776e6560008201527f7200000000000000000000000000000000000000000000000000000000000000602082015250565b6000612aee6021836122ed565b9150612af982612a92565b604082019050919050565b60006020820190508181036000830152612b1d81612ae1565b9050919050565b7f4552433732313a20617070726f76652063616c6c6572206973206e6f74206f7760008201527f6e6572206e6f7220617070726f76656420666f7220616c6c0000000000000000602082015250565b6000612b806038836122ed565b9150612b8b82612b24565b604082019050919050565b60006020820190508181036000830152612baf81612b73565b9050919050565b7f4552433732313a207472616e736665722063616c6c6572206973206e6f74206f60008201527f776e6572206e6f7220617070726f766564000000000000000000000000000000602082015250565b6000612c126031836122ed565b9150612c1d82612bb6565b604082019050919050565b60006020820190508181036000830152612c4181612c05565b9050919050565b7f416363657373436f6e74726f6c3a2063616e206f6e6c792072656e6f756e636560008201527f20726f6c657320666f722073656c660000000000000000000000000000000000602082015250565b6000612ca4602f836122ed565b9150612caf82612c48565b604082019050919050565b60006020820190508181036000830152612cd381612c97565b9050919050565b7f4552433732313a2063616c6c6572206973206e6f7420746f6b656e206f776e6560008201527f72206e6f7220617070726f766564000000000000000000000000000000000000602082015250565b6000612d36602e836122ed565b9150612d4182612cda565b604082019050919050565b60006020820190508181036000830152612d6581612d29565b9050919050565b7f4552433732313a206f776e657220717565727920666f72206e6f6e657869737460008201527f656e7420746f6b656e0000000000000000000000000000000000000000000000602082015250565b6000612dc86029836122ed565b9150612dd382612d6c565b604082019050919050565b60006020820190508181036000830152612df781612dbb565b9050919050565b7f4552433732313a2062616c616e636520717565727920666f7220746865207a6560008201527f726f206164647265737300000000000000000000000000000000000000000000602082015250565b6000612e5a602a836122ed565b9150612e6582612dfe565b604082019050919050565b60006020820190508181036000830152612e8981612e4d565b9050919050565b7f4552433732313a206f70657261746f7220717565727920666f72206e6f6e657860008201527f697374656e7420746f6b656e0000000000000000000000000000000000000000602082015250565b6000612eec602c836122ed565b9150612ef782612e90565b604082019050919050565b60006020820190508181036000830152612f1b81612edf565b9050919050565b7f4552433732313a207472616e736665722066726f6d20696e636f72726563742060008201527f6f776e6572000000000000000000000000000000000000000000000000000000602082015250565b6000612f7e6025836122ed565b9150612f8982612f22565b604082019050919050565b60006020820190508181036000830152612fad81612f71565b9050919050565b7f4552433732313a207472616e7366657220746f20746865207a65726f2061646460008201527f7265737300000000000000000000000000000000000000000000000000000000602082015250565b60006130106024836122ed565b915061301b82612fb4565b604082019050919050565b6000602082019050818103600083015261303f81613003565b9050919050565b7f4e487b7100000000000000000000000000000000000000000000000000000000600052601160045260246000fd5b60006130808261239d565b915061308b8361239d565b92508282101561309e5761309d613046565b5b828203905092915050565b60006130b48261239d565b91506130bf8361239d565b9250827fffffffffffffffffffffffffffffffffffffffffffffffffffffffffffffffff038211156130f4576130f3613046565b5b828201905092915050565b7f4552433732313a207472616e7366657220746f206e6f6e20455243373231526560008201527f63656976657220696d706c656d656e7465720000000000000000000000000000602082015250565b600061315b6032836122ed565b9150613166826130ff565b604082019050919050565b6000602082019050818103600083015261318a8161314e565b9050919050565b7f4552433732313a20617070726f766520746f2063616c6c657200000000000000600082015250565b60006131c76019836122ed565b91506131d282613191565b602082019050919050565b600060208201905081810360008301526131f6816131ba565b9050919050565b7f45524337323155524953746f726167653a2055524920717565727920666f722060008201527f6e6f6e6578697374656e7420746f6b656e000000000000000000000000000000602082015250565b60006132596031836122ed565b9150613264826131fd565b604082019050919050565b600060208201905081810360008301526132888161324c565b9050919050565b600081905092915050565b60006132a5826122e2565b6132af818561328f565b93506132bf8185602086016122fe565b80840191505092915050565b60006132d7828561329a565b91506132e3828461329a565b91508190509392505050565b7f45524337323155524953746f726167653a2055524920736574206f66206e6f6e60008201527f6578697374656e7420746f6b656e000000000000000000000000000000000000602082015250565b600061334b602e836122ed565b9150613356826132ef565b604082019050919050565b6000602082019050818103600083015261337a8161333e565b9050919050565b7f416363657373436f6e74726f6c3a206163636f756e7420000000000000000000600082015250565b60006133b760178361328f565b91506133c282613381565b601782019050919050565b7f206973206d697373696e6720726f6c6520000000000000000000000000000000600082015250565b600061340360118361328f565b915061340e826133cd565b601182019050919050565b6000613424826133aa565b9150613430828561329a565b915061343b826133f6565b9150613447828461329a565b91508190509392505050565b600081519050919050565b600082825260208201905092915050565b600061347a82613453565b613484818561345e565b93506134948185602086016122fe565b61349d81612331565b840191505092915050565b60006080820190506134bd6000830187612432565b6134ca6020830186612432565b6134d76040830185612615565b81810360608301526134e9818461346f565b905095945050505050565b60008151905061350381612253565b92915050565b60006020828403121561351f5761351e61221d565b5b600061352d848285016134f4565b91505092915050565b7f4552433732314d657461646174613a2055524920717565727920666f72206e6f60008201527f6e6578697374656e7420746f6b656e0000000000000000000000000000000000602082015250565b6000613592602f836122ed565b915061359d82613536565b604082019050919050565b600060208201905081810360008301526135c181613585565b9050919050565b60006135d38261239d565b91506135de8361239d565b9250817fffffffffffffffffffffffffffffffffffffffffffffffffffffffffffffffff048311821515161561361757613616613046565b5b828202905092915050565b7f4e487b7100000000000000000000000000000000000000000000000000000000600052603260045260246000fd5b600061365c8261239d565b91506000820361366f5761366e613046565b5b600182039050919050565b7f537472696e67733a20686578206c656e67746820696e73756666696369656e74600082015250565b60006136b06020836122ed565b91506136bb8261367a565b602082019050919050565b600060208201905081810360008301526136df816136a3565b9050919050565b60006136f18261239d565b91507fffffffffffffffffffffffffffffffffffffffffffffffffffffffffffffffff820361372357613722613046565b5b600182019050919050565b7f4e487b7100000000000000000000000000000000000000000000000000000000600052601260045260246000fd5b60006137688261239d565b91506137738361239d565b9250826137835761378261372e565b5b828204905092915050565b60006137998261239d565b91506137a48361239d565b9250826137b4576137b361372e565b5b828206905092915050565b7f4552433732313a206d696e7420746f20746865207a65726f2061646472657373600082015250565b60006137f56020836122ed565b9150613800826137bf565b602082019050919050565b60006020820190508181036000830152613824816137e8565b9050919050565b7f4552433732313a20746f6b656e20616c7265616479206d696e74656400000000600082015250565b6000613861601c836122ed565b915061386c8261382b565b602082019050919050565b6000602082019050818103600083015261389081613854565b905091905056fea264697066735822122007270b8f364dcea8aecf2cec0758a83166dfe3acc5e8a6956a5f5054c6219bd364736f6c634300080e0033",
  "linkReferences": {},
  "deployedLinkReferences": {}
}